{
  "contractName": "NFTCollectionCommentsUpgradeable",
  "abi": [
    {
      "inputs": [],
      "name": "LowBalance",
      "type": "error"
    },
    {
      "inputs": [],
      "name": "SpendingNotApproved",
      "type": "error"
    },
    {
      "inputs": [],
      "name": "WithdrawError",
      "type": "error"
    },
    {
      "inputs": [],
      "name": "WrongValue",
      "type": "error"
    },
    {
      "anonymous": false,
      "inputs": [
        {
          "indexed": false,
          "internalType": "uint8",
          "name": "version",
          "type": "uint8"
        }
      ],
      "name": "Initialized",
      "type": "event"
    },
    {
      "anonymous": false,
      "inputs": [
        {
          "indexed": true,
          "internalType": "address",
          "name": "previousOwner",
          "type": "address"
        },
        {
          "indexed": true,
          "internalType": "address",
          "name": "newOwner",
          "type": "address"
        }
      ],
      "name": "OwnershipTransferred",
      "type": "event"
    },
    {
      "inputs": [],
      "name": "commentFee",
      "outputs": [
        {
          "internalType": "uint256",
          "name": "",
          "type": "uint256"
        }
      ],
      "stateMutability": "view",
      "type": "function"
    },
    {
      "inputs": [],
      "name": "erc20Token",
      "outputs": [
        {
          "internalType": "contract IERC20Upgradeable",
          "name": "",
          "type": "address"
        }
      ],
      "stateMutability": "view",
      "type": "function"
    },
    {
      "inputs": [],
      "name": "owner",
      "outputs": [
        {
          "internalType": "address",
          "name": "",
          "type": "address"
        }
      ],
      "stateMutability": "view",
      "type": "function"
    },
    {
      "inputs": [],
      "name": "renounceOwnership",
      "outputs": [],
      "stateMutability": "nonpayable",
      "type": "function"
    },
    {
      "inputs": [
        {
          "internalType": "address",
          "name": "newOwner",
          "type": "address"
        }
      ],
      "name": "transferOwnership",
      "outputs": [],
      "stateMutability": "nonpayable",
      "type": "function"
    },
    {
      "inputs": [
        {
          "internalType": "address",
          "name": "token",
          "type": "address"
        }
      ],
      "name": "init",
      "outputs": [],
      "stateMutability": "nonpayable",
      "type": "function"
    },
    {
      "inputs": [
        {
          "internalType": "address",
          "name": "nftAddress",
          "type": "address"
        },
        {
          "internalType": "string",
          "name": "contents",
          "type": "string"
        }
      ],
      "name": "addComment_native",
      "outputs": [],
      "stateMutability": "payable",
      "type": "function"
    },
    {
      "inputs": [
        {
          "internalType": "address",
          "name": "nftAddress",
          "type": "address"
        },
        {
          "internalType": "string",
          "name": "contents",
          "type": "string"
        }
      ],
      "name": "addComment_erc20",
      "outputs": [],
      "stateMutability": "nonpayable",
      "type": "function"
    },
    {
      "inputs": [],
      "name": "withdrawFees",
      "outputs": [],
      "stateMutability": "nonpayable",
      "type": "function"
    },
    {
      "inputs": [],
      "name": "withdrawFeesERC20",
      "outputs": [],
      "stateMutability": "nonpayable",
      "type": "function"
    },
    {
      "inputs": [
        {
          "internalType": "address",
          "name": "newToken",
          "type": "address"
        }
      ],
      "name": "changeERC20FeeToken",
      "outputs": [],
      "stateMutability": "nonpayable",
      "type": "function"
    },
    {
      "inputs": [
        {
          "internalType": "uint256",
          "name": "newCommentFee",
          "type": "uint256"
        }
      ],
      "name": "updateFee",
      "outputs": [],
      "stateMutability": "nonpayable",
      "type": "function"
    },
    {
      "inputs": [
        {
          "internalType": "address",
          "name": "nftAddress",
          "type": "address"
        },
        {
          "internalType": "uint256",
          "name": "index",
          "type": "uint256"
        }
      ],
      "name": "getComment",
      "outputs": [
        {
          "internalType": "address",
          "name": "commenter",
          "type": "address"
        },
        {
          "internalType": "uint256",
          "name": "timestamp",
          "type": "uint256"
        },
        {
          "internalType": "string",
          "name": "contents",
          "type": "string"
        }
      ],
      "stateMutability": "view",
      "type": "function"
    },
    {
      "inputs": [
        {
          "internalType": "address",
          "name": "nftAddress",
          "type": "address"
        }
      ],
      "name": "getAllCommentsOf",
      "outputs": [
        {
          "components": [
            {
              "internalType": "address",
              "name": "commenter",
              "type": "address"
            },
            {
              "internalType": "uint256",
              "name": "timestamp",
              "type": "uint256"
            },
            {
              "internalType": "string",
              "name": "contents",
              "type": "string"
            }
          ],
          "internalType": "struct NFTCollectionCommentsUpgradeable.Comment[]",
          "name": "",
          "type": "tuple[]"
        }
      ],
      "stateMutability": "view",
      "type": "function"
    }
  ],
  "bytecode": "0x608060405234801561001057600080fd5b5061110a806100206000396000f3fe6080604052600436106100dd5760003560e01c80639012c4a81161007f578063b40548dd11610059578063b40548dd14610211578063d7e8c32714610235578063f2db450e14610262578063f2fde38b1461029157600080fd5b80639012c4a8146101b1578063a36c8fee146101d1578063a5aca530146101f157600080fd5b80634d0c8144116100bb5780634d0c81441461012c578063715018a6146101415780638a13eea7146101565780638da5cb5b1461019357600080fd5b806319ab453c146100e25780631e3746af14610104578063476343ee14610117575b600080fd5b3480156100ee57600080fd5b506101026100fd366004610cf7565b6102b1565b005b610102610112366004610d19565b6103ef565b34801561012357600080fd5b506101026104f0565b34801561013857600080fd5b50610102610564565b34801561014d57600080fd5b5061010261066a565b34801561016257600080fd5b50606554610176906001600160a01b031681565b6040516001600160a01b0390911681526020015b60405180910390f35b34801561019f57600080fd5b506033546001600160a01b0316610176565b3480156101bd57600080fd5b506101026101cc366004610d9c565b61067e565b3480156101dd57600080fd5b506101026101ec366004610cf7565b61068b565b3480156101fd57600080fd5b5061010261020c366004610d19565b6106b5565b34801561021d57600080fd5b5061022760665481565b60405190815260200161018a565b34801561024157600080fd5b50610255610250366004610cf7565b610936565b60405161018a9190610dfb565b34801561026e57600080fd5b5061028261027d366004610e83565b610a5d565b60405161018a93929190610ead565b34801561029d57600080fd5b506101026102ac366004610cf7565b610b5a565b600054610100900460ff16158080156102d15750600054600160ff909116105b806102eb5750303b1580156102eb575060005460ff166001145b6103535760405162461bcd60e51b815260206004820152602e60248201527f496e697469616c697a61626c653a20636f6e747261637420697320616c72656160448201526d191e481a5b9a5d1a585b1a5e995960921b60648201526084015b60405180910390fd5b6000805460ff191660011790558015610376576000805461ff0019166101001790555b61037e610bd0565b606580546001600160a01b0319166001600160a01b038416179055670de0b6b3a764000060665580156103eb576000805461ff0019169055604051600181527f7f26b83ff96e1f2b6a682f133852f6798a09c465da95921460cefb38474024989060200160405180910390a15b5050565b606654341461041157604051632635240760e21b815260040160405180910390fd5b60676000846001600160a01b03166001600160a01b031681526020019081526020016000206040518060600160405280336001600160a01b0316815260200142815260200184848080601f0160208091040260200160405190810160405280939291908181526020018383808284376000920182905250939094525050835460018082018655948252602091829020845160039092020180546001600160a01b0319166001600160a01b03909216919091178155908301519381019390935550604081015190919060028201906104e89082610f78565b505050505050565b6104f8610bff565b604051600090339047908381818185875af1925050503d806000811461053a576040519150601f19603f3d011682016040523d82523d6000602084013e61053f565b606091505b50509050806105615760405163351dc55d60e21b815260040160405180910390fd5b50565b61056c610bff565b6065546001600160a01b031663a9059cbb61058f6033546001600160a01b031690565b6065546040516370a0823160e01b81523060048201526001600160a01b03909116906370a0823190602401602060405180830381865afa1580156105d7573d6000803e3d6000fd5b505050506040513d601f19601f820116820180604052508101906105fb9190611038565b6040516001600160e01b031960e085901b1681526001600160a01b03909216600483015260248201526044016020604051808303816000875af1158015610646573d6000803e3d6000fd5b505050506040513d601f19601f820116820180604052508101906105619190611051565b610672610bff565b61067c6000610c59565b565b610686610bff565b606655565b610693610bff565b606580546001600160a01b0319166001600160a01b0392909216919091179055565b6066546065546040516370a0823160e01b81523360048201526001600160a01b03909116906370a0823190602401602060405180830381865afa158015610700573d6000803e3d6000fd5b505050506040513d601f19601f820116820180604052508101906107249190611038565b10156107435760405163fe382aa760e01b815260040160405180910390fd5b606654606554604051636eb1769f60e11b81523360048201523060248201526001600160a01b039091169063dd62ed3e90604401602060405180830381865afa158015610794573d6000803e3d6000fd5b505050506040513d601f19601f820116820180604052508101906107b89190611038565b10156107d757604051631aa28d0560e01b815260040160405180910390fd5b60676000846001600160a01b03166001600160a01b031681526020019081526020016000206040518060600160405280336001600160a01b0316815260200142815260200184848080601f0160208091040260200160405190810160405280939291908181526020018383808284376000920182905250939094525050835460018082018655948252602091829020845160039092020180546001600160a01b0319166001600160a01b03909216919091178155908301519381019390935550604081015190919060028201906108ae9082610f78565b50506065546066546040516323b872dd60e01b815233600482015230602482015260448101919091526001600160a01b0390911691506323b872dd906064016020604051808303816000875af115801561090c573d6000803e3d6000fd5b505050506040513d601f19601f820116820180604052508101906109309190611051565b50505050565b6001600160a01b0381166000908152606760209081526040808320805482518185028101850190935280835260609492939192909184015b82821015610a52576000848152602090819020604080516060810182526003860290920180546001600160a01b03168352600181015493830193909352600283018054929392918401916109c190610ef3565b80601f01602080910402602001604051908101604052809291908181526020018280546109ed90610ef3565b8015610a3a5780601f10610a0f57610100808354040283529160200191610a3a565b820191906000526020600020905b815481529060010190602001808311610a1d57829003601f168201915b5050505050815250508152602001906001019061096e565b505050509050919050565b6001600160a01b03821660009081526067602052604081208054829160609183919086908110610a8f57610a8f611073565b906000526020600020906003020190508060000160009054906101000a90046001600160a01b0316816001015482600201808054610acc90610ef3565b80601f0160208091040260200160405190810160405280929190818152602001828054610af890610ef3565b8015610b455780601f10610b1a57610100808354040283529160200191610b45565b820191906000526020600020905b815481529060010190602001808311610b2857829003601f168201915b50505050509050935093509350509250925092565b610b62610bff565b6001600160a01b038116610bc75760405162461bcd60e51b815260206004820152602660248201527f4f776e61626c653a206e6577206f776e657220697320746865207a65726f206160448201526564647265737360d01b606482015260840161034a565b61056181610c59565b600054610100900460ff16610bf75760405162461bcd60e51b815260040161034a90611089565b61067c610cab565b6033546001600160a01b0316331461067c5760405162461bcd60e51b815260206004820181905260248201527f4f776e61626c653a2063616c6c6572206973206e6f7420746865206f776e6572604482015260640161034a565b603380546001600160a01b038381166001600160a01b0319831681179093556040519116919082907f8be0079c531659141344cd1fd0a4f28419497f9722a3daafe3b4186f6b6457e090600090a35050565b600054610100900460ff16610cd25760405162461bcd60e51b815260040161034a90611089565b61067c33610c59565b80356001600160a01b0381168114610cf257600080fd5b919050565b600060208284031215610d0957600080fd5b610d1282610cdb565b9392505050565b600080600060408486031215610d2e57600080fd5b610d3784610cdb565b9250602084013567ffffffffffffffff80821115610d5457600080fd5b818601915086601f830112610d6857600080fd5b813581811115610d7757600080fd5b876020828501011115610d8957600080fd5b6020830194508093505050509250925092565b600060208284031215610dae57600080fd5b5035919050565b6000815180845260005b81811015610ddb57602081850181015186830182015201610dbf565b506000602082860101526020601f19601f83011685010191505092915050565b60006020808301818452808551808352604092508286019150828160051b87010184880160005b83811015610e7557888303603f19018552815180516001600160a01b0316845287810151888501528601516060878501819052610e6181860183610db5565b968901969450505090860190600101610e22565b509098975050505050505050565b60008060408385031215610e9657600080fd5b610e9f83610cdb565b946020939093013593505050565b60018060a01b0384168152826020820152606060408201526000610ed46060830184610db5565b95945050505050565b634e487b7160e01b600052604160045260246000fd5b600181811c90821680610f0757607f821691505b602082108103610f2757634e487b7160e01b600052602260045260246000fd5b50919050565b601f821115610f7357600081815260208120601f850160051c81016020861015610f545750805b601f850160051c820191505b818110156104e857828155600101610f60565b505050565b815167ffffffffffffffff811115610f9257610f92610edd565b610fa681610fa08454610ef3565b84610f2d565b602080601f831160018114610fdb5760008415610fc35750858301515b600019600386901b1c1916600185901b1785556104e8565b600085815260208120601f198616915b8281101561100a57888601518255948401946001909101908401610feb565b50858210156110285787850151600019600388901b60f8161c191681555b5050505050600190811b01905550565b60006020828403121561104a57600080fd5b5051919050565b60006020828403121561106357600080fd5b81518015158114610d1257600080fd5b634e487b7160e01b600052603260045260246000fd5b6020808252602b908201527f496e697469616c697a61626c653a20636f6e7472616374206973206e6f74206960408201526a6e697469616c697a696e6760a81b60608201526080019056fea2646970667358221220eff4cd1430de59973aa024e6647d7d8523ced5a66deec27257122e24d911c9b364736f6c63430008110033",
  "immutableReferences": {},
  "source": "// SPDX-License-Identifier: MIT\npragma solidity ^0.8.7;\n\nimport \"@openzeppelin/contracts-upgradeable/access/OwnableUpgradeable.sol\";\nimport \"@openzeppelin/contracts-upgradeable/token/ERC20/IERC20Upgradeable.sol\";\nimport \"@openzeppelin/contracts-upgradeable/proxy/utils/Initializable.sol\";\n\n/**\n * @dev OCTO NFT collection commenting.\n * @author Omsify\n */\ncontract NFTCollectionCommentsUpgradeable is Initializable, OwnableUpgradeable {\n\n    IERC20Upgradeable public erc20Token;\n    struct Comment {\n        address commenter;\n        uint256 timestamp;\n        string contents;\n    }\n\n    error WrongValue();\n    error WithdrawError();\n    error LowBalance();\n    error SpendingNotApproved();\n\n    uint256 public commentFee ;\n\n    function init(address token) public initializer {\n        __Ownable_init();\n        erc20Token = IERC20Upgradeable(token);\n        commentFee = 1 ether; //1 TFuel\n    }\n\n    // Mapping from NFT collection address => comments related to this specific collection.\n    mapping(address => Comment[]) private collectionComments;\n\n    /**\n     * @dev Stores a comment with text `contents` related to\n     * NFT with address `nftAddress` and token id `tokenId` in the contract.\n     * Transaction value should equal current commentFee.\n     */\n    function addComment_native(address nftAddress, string calldata contents) public payable  {\n        if(msg.value != commentFee) revert WrongValue();\n\n        collectionComments[nftAddress].push(Comment(\n            msg.sender,\n            block.timestamp,\n            contents\n        ));\n    }\n    \n    function addComment_erc20(address nftAddress, string calldata contents) public  {\n        if(erc20Token.balanceOf(msg.sender) < commentFee) revert LowBalance();\n        if(erc20Token.allowance(msg.sender, address(this)) < commentFee) revert SpendingNotApproved();\n\n        collectionComments[nftAddress].push(Comment(\n            msg.sender,\n            block.timestamp,\n            contents\n        ));\n\n        erc20Token.transferFrom(msg.sender , address(this), commentFee);\n    }\n\n    /**\n     * @dev Withdraws fee to the contract owner address.\n     */\n    function withdrawFees() public onlyOwner {\n        (bool sent,) = msg.sender.call{value: address(this).balance}(\"\");\n        if(!sent) revert WithdrawError();\n    }\n\n    /**\n     * @dev Withdraws fee to the contract owner address.\n     */\n    function withdrawFeesERC20() public onlyOwner {\n        erc20Token.transfer(owner(), erc20Token.balanceOf(address(this)));\n    }\n\n    /**\n     * @dev changes erc20 fee token.\n     */\n    function changeERC20FeeToken(address newToken) public onlyOwner {\n        erc20Token = IERC20Upgradeable(newToken);\n    }\n\n    /**\n     * @dev Updates commentFee amount.\n     */\n    function updateFee(uint256 newCommentFee) public onlyOwner {\n        commentFee = newCommentFee;\n    }\n\n    /**\n     * @dev Returns a comment related to\n     * NFT collection with address `nftAddress` at `index` from the contract.\n     */\n    function getComment(address nftAddress, uint256 index) external view returns(address commenter, uint256 timestamp, string memory contents) {\n        Comment storage comment = collectionComments[nftAddress][index];\n        return (comment.commenter, comment.timestamp, comment.contents);\n    }\n\n    /**\n     * @dev Returns a comment array related to\n     * NFT collection with address `nftAddress` from the contract.\n     */\n    function getAllCommentsOf(address nftAddress) external view returns (Comment[] memory) {\n        return collectionComments[nftAddress];\n    }\n}",
  "sourcePath": "/Users/shivam/github/contracts-upgradable/contracts/CollectionDiscussionsUpgradeable.sol",
  "compiler": {
    "name": "solc",
    "version": "0.8.17+commit.8df45f5f.Emscripten.clang"
  },
  "schemaVersion": "3.4.7",
  "updatedAt": "2023-11-16T18:29:30.103Z",
  "devdoc": {
    "author": "Omsify",
    "details": "OCTO NFT collection commenting.",
    "kind": "dev",
    "methods": {
      "addComment_native(address,string)": {
        "details": "Stores a comment with text `contents` related to NFT with address `nftAddress` and token id `tokenId` in the contract. Transaction value should equal current commentFee."
      },
      "changeERC20FeeToken(address)": {
        "details": "changes erc20 fee token."
      },
      "getAllCommentsOf(address)": {
        "details": "Returns a comment array related to NFT collection with address `nftAddress` from the contract."
      },
      "getComment(address,uint256)": {
        "details": "Returns a comment related to NFT collection with address `nftAddress` at `index` from the contract."
      },
      "owner()": {
        "details": "Returns the address of the current owner."
      },
      "renounceOwnership()": {
        "details": "Leaves the contract without owner. It will not be possible to call `onlyOwner` functions. Can only be called by the current owner. NOTE: Renouncing ownership will leave the contract without an owner, thereby disabling any functionality that is only available to the owner."
      },
      "transferOwnership(address)": {
        "details": "Transfers ownership of the contract to a new account (`newOwner`). Can only be called by the current owner."
      },
      "updateFee(uint256)": {
        "details": "Updates commentFee amount."
      },
      "withdrawFees()": {
        "details": "Withdraws fee to the contract owner address."
      },
      "withdrawFeesERC20()": {
        "details": "Withdraws fee to the contract owner address."
      }
    },
    "version": 1
  },
  "userdoc": {
    "kind": "user",
    "methods": {},
    "version": 1
  }
}