{
  "contractName": "NFTCommentsUpgradeable",
  "abi": [
    {
      "inputs": [],
      "name": "LowBalance",
      "type": "error"
    },
    {
      "inputs": [],
      "name": "SpendingNotApproved",
      "type": "error"
    },
    {
      "inputs": [],
      "name": "WithdrawError",
      "type": "error"
    },
    {
      "inputs": [],
      "name": "WrongValue",
      "type": "error"
    },
    {
      "anonymous": false,
      "inputs": [
        {
          "indexed": false,
          "internalType": "uint8",
          "name": "version",
          "type": "uint8"
        }
      ],
      "name": "Initialized",
      "type": "event"
    },
    {
      "anonymous": false,
      "inputs": [
        {
          "indexed": true,
          "internalType": "address",
          "name": "previousOwner",
          "type": "address"
        },
        {
          "indexed": true,
          "internalType": "address",
          "name": "newOwner",
          "type": "address"
        }
      ],
      "name": "OwnershipTransferred",
      "type": "event"
    },
    {
      "inputs": [],
      "name": "commentFee",
      "outputs": [
        {
          "internalType": "uint256",
          "name": "",
          "type": "uint256"
        }
      ],
      "stateMutability": "view",
      "type": "function",
      "constant": true
    },
    {
      "inputs": [],
      "name": "erc20Token",
      "outputs": [
        {
          "internalType": "contract IERC20Upgradeable",
          "name": "",
          "type": "address"
        }
      ],
      "stateMutability": "view",
      "type": "function",
      "constant": true
    },
    {
      "inputs": [],
      "name": "owner",
      "outputs": [
        {
          "internalType": "address",
          "name": "",
          "type": "address"
        }
      ],
      "stateMutability": "view",
      "type": "function",
      "constant": true
    },
    {
      "inputs": [],
      "name": "renounceOwnership",
      "outputs": [],
      "stateMutability": "nonpayable",
      "type": "function"
    },
    {
      "inputs": [
        {
          "internalType": "address",
          "name": "newOwner",
          "type": "address"
        }
      ],
      "name": "transferOwnership",
      "outputs": [],
      "stateMutability": "nonpayable",
      "type": "function"
    },
    {
      "inputs": [
        {
          "internalType": "address",
          "name": "token",
          "type": "address"
        }
      ],
      "name": "init",
      "outputs": [],
      "stateMutability": "nonpayable",
      "type": "function"
    },
    {
      "inputs": [
        {
          "internalType": "address",
          "name": "nftAddress",
          "type": "address"
        },
        {
          "internalType": "uint256",
          "name": "tokenId",
          "type": "uint256"
        },
        {
          "internalType": "string",
          "name": "contents",
          "type": "string"
        }
      ],
      "name": "addComment_native",
      "outputs": [],
      "stateMutability": "payable",
      "type": "function",
      "payable": true
    },
    {
      "inputs": [
        {
          "internalType": "address",
          "name": "nftAddress",
          "type": "address"
        },
        {
          "internalType": "uint256",
          "name": "tokenId",
          "type": "uint256"
        },
        {
          "internalType": "string",
          "name": "contents",
          "type": "string"
        }
      ],
      "name": "addComment_erc20",
      "outputs": [],
      "stateMutability": "nonpayable",
      "type": "function"
    },
    {
      "inputs": [],
      "name": "withdrawFees",
      "outputs": [],
      "stateMutability": "nonpayable",
      "type": "function"
    },
    {
      "inputs": [],
      "name": "withdrawFeesERC20",
      "outputs": [],
      "stateMutability": "nonpayable",
      "type": "function"
    },
    {
      "inputs": [
        {
          "internalType": "address",
          "name": "newToken",
          "type": "address"
        }
      ],
      "name": "changeERC20FeeToken",
      "outputs": [],
      "stateMutability": "nonpayable",
      "type": "function"
    },
    {
      "inputs": [
        {
          "internalType": "uint256",
          "name": "newCommentFee",
          "type": "uint256"
        }
      ],
      "name": "updateFee",
      "outputs": [],
      "stateMutability": "nonpayable",
      "type": "function"
    },
    {
      "inputs": [
        {
          "internalType": "address",
          "name": "nftAddress",
          "type": "address"
        },
        {
          "internalType": "uint256",
          "name": "tokenId",
          "type": "uint256"
        },
        {
          "internalType": "uint256",
          "name": "index",
          "type": "uint256"
        }
      ],
      "name": "getComment",
      "outputs": [
        {
          "internalType": "address",
          "name": "commenter",
          "type": "address"
        },
        {
          "internalType": "uint256",
          "name": "timestamp",
          "type": "uint256"
        },
        {
          "internalType": "string",
          "name": "contents",
          "type": "string"
        }
      ],
      "stateMutability": "view",
      "type": "function",
      "constant": true
    },
    {
      "inputs": [
        {
          "internalType": "address",
          "name": "nftAddress",
          "type": "address"
        },
        {
          "internalType": "uint256",
          "name": "tokenId",
          "type": "uint256"
        }
      ],
      "name": "getAllCommentsOf",
      "outputs": [
        {
          "components": [
            {
              "internalType": "address",
              "name": "commenter",
              "type": "address"
            },
            {
              "internalType": "uint256",
              "name": "timestamp",
              "type": "uint256"
            },
            {
              "internalType": "string",
              "name": "contents",
              "type": "string"
            }
          ],
          "internalType": "struct NFTCommentsUpgradeable.Comment[]",
          "name": "",
          "type": "tuple[]"
        }
      ],
      "stateMutability": "view",
      "type": "function",
      "constant": true
    }
  ],
  "bytecode": "0x608060405234801561001057600080fd5b50611102806100206000396000f3fe6080604052600436106100dd5760003560e01c80638a13eea71161007f578063a36c8fee11610059578063a36c8fee14610222578063b40548dd14610242578063bffd85ff14610266578063f2fde38b1461029557600080fd5b80638a13eea7146101ac5780638da5cb5b146101e45780639012c4a81461020257600080fd5b8063476343ee116100bb578063476343ee1461014d5780634d0c814414610162578063715018a614610177578063803889711461018c57600080fd5b806309f284fd146100e257806319ab453c14610118578063260b7f8d1461013a575b600080fd5b3480156100ee57600080fd5b506101026100fd366004610cff565b6102b5565b60405161010f9190610d6f565b60405180910390f35b34801561012457600080fd5b50610138610133366004610df7565b6103e5565b005b610138610148366004610e19565b610523565b34801561015957600080fd5b50610138610615565b34801561016e57600080fd5b50610138610689565b34801561018357600080fd5b5061013861078f565b34801561019857600080fd5b506101386101a7366004610e19565b6107a3565b3480156101b857600080fd5b506065546101cc906001600160a01b031681565b6040516001600160a01b03909116815260200161010f565b3480156101f057600080fd5b506033546001600160a01b03166101cc565b34801561020e57600080fd5b5061013861021d366004610ea0565b610a15565b34801561022e57600080fd5b5061013861023d366004610df7565b610a22565b34801561024e57600080fd5b5061025860665481565b60405190815260200161010f565b34801561027257600080fd5b50610286610281366004610eb9565b610a4c565b60405161010f93929190610eec565b3480156102a157600080fd5b506101386102b0366004610df7565b610b56565b6001600160a01b03821660009081526067602090815260408083208484528252808320805482518185028101850190935280835260609492939192909184015b828210156103d9576000848152602090819020604080516060810182526003860290920180546001600160a01b031683526001810154938301939093526002830180549293929184019161034890610f1c565b80601f016020809104026020016040519081016040528092919081815260200182805461037490610f1c565b80156103c15780601f10610396576101008083540402835291602001916103c1565b820191906000526020600020905b8154815290600101906020018083116103a457829003601f168201915b505050505081525050815260200190600101906102f5565b50505050905092915050565b600054610100900460ff16158080156104055750600054600160ff909116105b8061041f5750303b15801561041f575060005460ff166001145b6104875760405162461bcd60e51b815260206004820152602e60248201527f496e697469616c697a61626c653a20636f6e747261637420697320616c72656160448201526d191e481a5b9a5d1a585b1a5e995960921b60648201526084015b60405180910390fd5b6000805460ff1916600117905580156104aa576000805461ff0019166101001790555b6104b2610bcc565b606580546001600160a01b0319166001600160a01b038416179055670de0b6b3a7640000606655801561051f576000805461ff0019169055604051600181527f7f26b83ff96e1f2b6a682f133852f6798a09c465da95921460cefb38474024989060200160405180910390a15b5050565b606654341461054557604051632635240760e21b815260040160405180910390fd5b6001600160a01b0384166000908152606760209081526040808320868452825291829020825160608101845233815242818401528351601f8601849004840281018401855285815291939092908301919086908690819084018382808284376000920182905250939094525050835460018082018655948252602091829020845160039092020180546001600160a01b0319166001600160a01b039092169190911781559083015193810193909355506040810151909190600282019061060c9082610fbb565b50505050505050565b61061d610c37565b604051600090339047908381818185875af1925050503d806000811461065f576040519150601f19603f3d011682016040523d82523d6000602084013e610664565b606091505b50509050806106865760405163351dc55d60e21b815260040160405180910390fd5b50565b610691610c37565b6065546001600160a01b031663a9059cbb6106b46033546001600160a01b031690565b6065546040516370a0823160e01b81523060048201526001600160a01b03909116906370a0823190602401602060405180830381865afa1580156106fc573d6000803e3d6000fd5b505050506040513d601f19601f82011682018060405250810190610720919061107b565b6040516001600160e01b031960e085901b1681526001600160a01b03909216600483015260248201526044016020604051808303816000875af115801561076b573d6000803e3d6000fd5b505050506040513d601f19601f820116820180604052508101906106869190611094565b610797610c37565b6107a16000610c91565b565b6066546065546040516370a0823160e01b81523360048201526001600160a01b03909116906370a0823190602401602060405180830381865afa1580156107ee573d6000803e3d6000fd5b505050506040513d601f19601f82011682018060405250810190610812919061107b565b10156108315760405163fe382aa760e01b815260040160405180910390fd5b606654606554604051636eb1769f60e11b81523360048201523060248201526001600160a01b039091169063dd62ed3e90604401602060405180830381865afa158015610882573d6000803e3d6000fd5b505050506040513d601f19601f820116820180604052508101906108a6919061107b565b10156108c557604051631aa28d0560e01b815260040160405180910390fd5b6001600160a01b0384166000908152606760209081526040808320868452825291829020825160608101845233815242818401528351601f8601849004840281018401855285815291939092908301919086908690819084018382808284376000920182905250939094525050835460018082018655948252602091829020845160039092020180546001600160a01b0319166001600160a01b039092169190911781559083015193810193909355506040810151909190600282019061098c9082610fbb565b50506065546066546040516323b872dd60e01b815233600482015230602482015260448101919091526001600160a01b0390911691506323b872dd906064016020604051808303816000875af11580156109ea573d6000803e3d6000fd5b505050506040513d601f19601f82011682018060405250810190610a0e9190611094565b5050505050565b610a1d610c37565b606655565b610a2a610c37565b606580546001600160a01b0319166001600160a01b0392909216919091179055565b6001600160a01b038316600090815260676020908152604080832085845290915281208054829160609183919086908110610a8957610a896110b6565b906000526020600020906003020190508060000160009054906101000a90046001600160a01b0316816001015482600201808054610ac690610f1c565b80601f0160208091040260200160405190810160405280929190818152602001828054610af290610f1c565b8015610b3f5780601f10610b1457610100808354040283529160200191610b3f565b820191906000526020600020905b815481529060010190602001808311610b2257829003601f168201915b505050505090509350935093505093509350939050565b610b5e610c37565b6001600160a01b038116610bc35760405162461bcd60e51b815260206004820152602660248201527f4f776e61626c653a206e6577206f776e657220697320746865207a65726f206160448201526564647265737360d01b606482015260840161047e565b61068681610c91565b600054610100900460ff166107a15760405162461bcd60e51b815260206004820152602b60248201527f496e697469616c697a61626c653a20636f6e7472616374206973206e6f74206960448201526a6e697469616c697a696e6760a81b606482015260840161047e565b6033546001600160a01b031633146107a15760405162461bcd60e51b815260206004820181905260248201527f4f776e61626c653a2063616c6c6572206973206e6f7420746865206f776e6572604482015260640161047e565b603380546001600160a01b038381166001600160a01b0319831681179093556040519116919082907f8be0079c531659141344cd1fd0a4f28419497f9722a3daafe3b4186f6b6457e090600090a35050565b80356001600160a01b0381168114610cfa57600080fd5b919050565b60008060408385031215610d1257600080fd5b610d1b83610ce3565b946020939093013593505050565b6000815180845260005b81811015610d4f57602081850181015186830182015201610d33565b506000602082860101526020601f19601f83011685010191505092915050565b60006020808301818452808551808352604092508286019150828160051b87010184880160005b83811015610de957888303603f19018552815180516001600160a01b0316845287810151888501528601516060878501819052610dd581860183610d29565b968901969450505090860190600101610d96565b509098975050505050505050565b600060208284031215610e0957600080fd5b610e1282610ce3565b9392505050565b60008060008060608587031215610e2f57600080fd5b610e3885610ce3565b935060208501359250604085013567ffffffffffffffff80821115610e5c57600080fd5b818701915087601f830112610e7057600080fd5b813581811115610e7f57600080fd5b886020828501011115610e9157600080fd5b95989497505060200194505050565b600060208284031215610eb257600080fd5b5035919050565b600080600060608486031215610ece57600080fd5b610ed784610ce3565b95602085013595506040909401359392505050565b60018060a01b0384168152826020820152606060408201526000610f136060830184610d29565b95945050505050565b600181811c90821680610f3057607f821691505b602082108103610f5057634e487b7160e01b600052602260045260246000fd5b50919050565b634e487b7160e01b600052604160045260246000fd5b601f821115610fb657600081815260208120601f850160051c81016020861015610f935750805b601f850160051c820191505b81811015610fb257828155600101610f9f565b5050505b505050565b815167ffffffffffffffff811115610fd557610fd5610f56565b610fe981610fe38454610f1c565b84610f6c565b602080601f83116001811461101e57600084156110065750858301515b600019600386901b1c1916600185901b178555610fb2565b600085815260208120601f198616915b8281101561104d5788860151825594840194600190910190840161102e565b508582101561106b5787850151600019600388901b60f8161c191681555b5050505050600190811b01905550565b60006020828403121561108d57600080fd5b5051919050565b6000602082840312156110a657600080fd5b81518015158114610e1257600080fd5b634e487b7160e01b600052603260045260246000fdfea2646970667358221220755f8dd90e3aa00036ba4652d43709ed9971a213761b4fae0faa871142ebd20b64736f6c63430008110033",
  "immutableReferences": {},
  "source": "// SPDX-License-Identifier: MIT\npragma solidity ^0.8.7;\n\nimport \"@openzeppelin/contracts-upgradeable/access/OwnableUpgradeable.sol\";\nimport \"@openzeppelin/contracts-upgradeable/token/ERC20/IERC20Upgradeable.sol\";\nimport \"@openzeppelin/contracts-upgradeable/proxy/utils/Initializable.sol\";\n\n/**\n * @dev Simple on-chain storage for NFT commenting.\n * @author Omsify\n */\ncontract NFTCommentsUpgradeable is Initializable, OwnableUpgradeable {\n\n    IERC20Upgradeable public erc20Token;\n    struct Comment {\n        address commenter;\n        uint256 timestamp;\n        string contents;\n    }\n\n    error WrongValue();\n    error WithdrawError();\n    error LowBalance();\n    error SpendingNotApproved();\n\n    uint256 public commentFee ;\n\n    function init(address token) public initializer {\n        __Context_init();\n        erc20Token = IERC20Upgradeable(token);\n        commentFee = 1 ether; //1 TFuel\n    }\n\n    // Mapping from NFT collection address => mapping from tokenId => comments related to this specific token.\n    mapping(address => mapping(uint256 => Comment[])) private NFTCommentsByIdAtNFTAddress;\n\n    /**\n     * @dev Stores a comment with text `contents` related to\n     * NFT with address `nftAddress` and token id `tokenId` in the contract.\n     * Transaction value should equal current commentFee.\n     */\n    function addComment_native(address nftAddress, uint256 tokenId, string calldata contents) public payable  {\n        if(msg.value != commentFee) revert WrongValue();\n\n        NFTCommentsByIdAtNFTAddress[nftAddress][tokenId].push(Comment(\n            msg.sender,\n            block.timestamp,\n            contents\n        ));\n    }\n    \n    function addComment_erc20(address nftAddress, uint256 tokenId, string calldata contents) public  {\n        if(erc20Token.balanceOf(msg.sender) < commentFee) revert LowBalance();\n        if(erc20Token.allowance(msg.sender, address(this)) < commentFee) revert SpendingNotApproved();\n\n        NFTCommentsByIdAtNFTAddress[nftAddress][tokenId].push(Comment(\n            msg.sender,\n            block.timestamp,\n            contents\n        ));\n\n        erc20Token.transferFrom(msg.sender , address(this), commentFee);\n    }\n\n    /**\n     * @dev Withdraws fee to the contract owner address.\n     */\n    function withdrawFees() public onlyOwner {\n        (bool sent,) = msg.sender.call{value: address(this).balance}(\"\");\n        if(!sent) revert WithdrawError();\n    }\n\n    /**\n     * @dev Withdraws fee to the contract owner address.\n     */\n    function withdrawFeesERC20() public onlyOwner {\n        erc20Token.transfer(owner(), erc20Token.balanceOf(address(this)));\n    }\n\n    /**\n     * @dev changes erc20 fee token.\n     */\n    function changeERC20FeeToken(address newToken) public onlyOwner {\n        erc20Token = IERC20Upgradeable(newToken);\n    }\n\n    /**\n     * @dev Updates commentFee amount.\n     */\n    function updateFee(uint256 newCommentFee) public onlyOwner {\n        commentFee = newCommentFee;\n    }\n\n    /**\n     * @dev Returns a comment related to\n     * NFT with address `nftAddress` and token id `tokenId` at `index` from the contract.\n     */\n    function getComment(address nftAddress, uint256 tokenId, uint256 index) external view returns(address commenter, uint256 timestamp, string memory contents) {\n        Comment storage comment = NFTCommentsByIdAtNFTAddress[nftAddress][tokenId][index];\n        return (comment.commenter, comment.timestamp, comment.contents);\n    }\n\n    /**\n     * @dev Returns a comment array related to\n     * NFT with address `nftAddress` and token id `tokenId` from the contract.\n     */\n    function getAllCommentsOf(address nftAddress, uint256 tokenId) external view returns (Comment[] memory) {\n        return NFTCommentsByIdAtNFTAddress[nftAddress][tokenId];\n    }\n}",
  "sourcePath": "/Users/shivam/github/contracts-upgradable/contracts/DiscussionsUpgradeable.sol",
  "compiler": {
    "name": "solc",
    "version": "0.8.17+commit.8df45f5f.Emscripten.clang"
  },
  "schemaVersion": "3.4.7",
  "updatedAt": "2023-10-31T17:26:27.840Z",
  "networkType": "ethereum",
  "devdoc": {
    "author": "Omsify",
    "details": "Simple on-chain storage for NFT commenting.",
    "kind": "dev",
    "methods": {
      "addComment_native(address,uint256,string)": {
        "details": "Stores a comment with text `contents` related to NFT with address `nftAddress` and token id `tokenId` in the contract. Transaction value should equal current commentFee."
      },
      "changeERC20FeeToken(address)": {
        "details": "changes erc20 fee token."
      },
      "getAllCommentsOf(address,uint256)": {
        "details": "Returns a comment array related to NFT with address `nftAddress` and token id `tokenId` from the contract."
      },
      "getComment(address,uint256,uint256)": {
        "details": "Returns a comment related to NFT with address `nftAddress` and token id `tokenId` at `index` from the contract."
      },
      "owner()": {
        "details": "Returns the address of the current owner."
      },
      "renounceOwnership()": {
        "details": "Leaves the contract without owner. It will not be possible to call `onlyOwner` functions. Can only be called by the current owner. NOTE: Renouncing ownership will leave the contract without an owner, thereby disabling any functionality that is only available to the owner."
      },
      "transferOwnership(address)": {
        "details": "Transfers ownership of the contract to a new account (`newOwner`). Can only be called by the current owner."
      },
      "updateFee(uint256)": {
        "details": "Updates commentFee amount."
      },
      "withdrawFees()": {
        "details": "Withdraws fee to the contract owner address."
      },
      "withdrawFeesERC20()": {
        "details": "Withdraws fee to the contract owner address."
      }
    },
    "version": 1
  },
  "userdoc": {
    "kind": "user",
    "methods": {},
    "version": 1
  }
}