{
  "contractName": "OctoplaceMarketUpgradeable",
  "abi": [
    {
      "anonymous": false,
      "inputs": [
        {
          "indexed": true,
          "internalType": "address",
          "name": "nftContract",
          "type": "address"
        },
        {
          "indexed": true,
          "internalType": "address",
          "name": "creatorAddress",
          "type": "address"
        },
        {
          "indexed": false,
          "internalType": "uint256",
          "name": "BasisFeePoints",
          "type": "uint256"
        }
      ],
      "name": "CreatorFeeChanged",
      "type": "event"
    },
    {
      "anonymous": false,
      "inputs": [
        {
          "indexed": false,
          "internalType": "uint256",
          "name": "userPayout",
          "type": "uint256"
        },
        {
          "indexed": true,
          "internalType": "address",
          "name": "userAddress",
          "type": "address"
        },
        {
          "indexed": false,
          "internalType": "uint256",
          "name": "feePayout",
          "type": "uint256"
        },
        {
          "indexed": true,
          "internalType": "address",
          "name": "feeAddress",
          "type": "address"
        },
        {
          "indexed": false,
          "internalType": "uint256",
          "name": "creatorPayout",
          "type": "uint256"
        },
        {
          "indexed": true,
          "internalType": "address",
          "name": "creatorAddress",
          "type": "address"
        }
      ],
      "name": "FeeSplit",
      "type": "event"
    },
    {
      "anonymous": false,
      "inputs": [
        {
          "indexed": false,
          "internalType": "uint8",
          "name": "version",
          "type": "uint8"
        }
      ],
      "name": "Initialized",
      "type": "event"
    },
    {
      "anonymous": false,
      "inputs": [
        {
          "indexed": true,
          "internalType": "uint256",
          "name": "itemId",
          "type": "uint256"
        },
        {
          "indexed": true,
          "internalType": "address",
          "name": "nftContract",
          "type": "address"
        },
        {
          "indexed": false,
          "internalType": "uint256",
          "name": "tokenId",
          "type": "uint256"
        },
        {
          "indexed": true,
          "internalType": "address",
          "name": "seller",
          "type": "address"
        },
        {
          "indexed": false,
          "internalType": "address",
          "name": "owner",
          "type": "address"
        },
        {
          "indexed": false,
          "internalType": "string",
          "name": "category",
          "type": "string"
        },
        {
          "indexed": false,
          "internalType": "uint256",
          "name": "price",
          "type": "uint256"
        },
        {
          "indexed": false,
          "internalType": "bool",
          "name": "isSold",
          "type": "bool"
        }
      ],
      "name": "MarketItemCreated",
      "type": "event"
    },
    {
      "anonymous": false,
      "inputs": [
        {
          "indexed": true,
          "internalType": "uint256",
          "name": "itemId",
          "type": "uint256"
        },
        {
          "indexed": false,
          "internalType": "address",
          "name": "nftContract",
          "type": "address"
        },
        {
          "indexed": false,
          "internalType": "uint256",
          "name": "tokenId",
          "type": "uint256"
        },
        {
          "indexed": true,
          "internalType": "address",
          "name": "seller",
          "type": "address"
        },
        {
          "indexed": true,
          "internalType": "address",
          "name": "owner",
          "type": "address"
        },
        {
          "indexed": false,
          "internalType": "string",
          "name": "category",
          "type": "string"
        },
        {
          "indexed": false,
          "internalType": "uint256",
          "name": "price",
          "type": "uint256"
        },
        {
          "indexed": false,
          "internalType": "bool",
          "name": "isSold",
          "type": "bool"
        }
      ],
      "name": "MarketItemSale",
      "type": "event"
    },
    {
      "anonymous": false,
      "inputs": [
        {
          "indexed": true,
          "internalType": "uint256",
          "name": "itemId",
          "type": "uint256"
        },
        {
          "indexed": true,
          "internalType": "address",
          "name": "nftContract",
          "type": "address"
        },
        {
          "indexed": false,
          "internalType": "uint256",
          "name": "tokenId",
          "type": "uint256"
        },
        {
          "indexed": true,
          "internalType": "address",
          "name": "seller",
          "type": "address"
        },
        {
          "indexed": false,
          "internalType": "address",
          "name": "owner",
          "type": "address"
        },
        {
          "indexed": false,
          "internalType": "string",
          "name": "category",
          "type": "string"
        },
        {
          "indexed": false,
          "internalType": "uint256",
          "name": "price",
          "type": "uint256"
        },
        {
          "indexed": false,
          "internalType": "bool",
          "name": "isSold",
          "type": "bool"
        }
      ],
      "name": "MarketItemUpdated",
      "type": "event"
    },
    {
      "anonymous": false,
      "inputs": [
        {
          "indexed": true,
          "internalType": "uint256",
          "name": "itemId",
          "type": "uint256"
        },
        {
          "indexed": false,
          "internalType": "address",
          "name": "nftContract",
          "type": "address"
        },
        {
          "indexed": false,
          "internalType": "uint256",
          "name": "tokenId",
          "type": "uint256"
        },
        {
          "indexed": true,
          "internalType": "address",
          "name": "seller",
          "type": "address"
        },
        {
          "indexed": true,
          "internalType": "address",
          "name": "previousBidder",
          "type": "address"
        },
        {
          "indexed": false,
          "internalType": "uint256",
          "name": "price",
          "type": "uint256"
        }
      ],
      "name": "OfferCanceled",
      "type": "event"
    },
    {
      "anonymous": false,
      "inputs": [
        {
          "indexed": true,
          "internalType": "uint256",
          "name": "itemId",
          "type": "uint256"
        },
        {
          "indexed": false,
          "internalType": "address",
          "name": "nftContract",
          "type": "address"
        },
        {
          "indexed": false,
          "internalType": "uint256",
          "name": "tokenId",
          "type": "uint256"
        },
        {
          "indexed": true,
          "internalType": "address",
          "name": "seller",
          "type": "address"
        },
        {
          "indexed": false,
          "internalType": "uint256",
          "name": "highestOffer",
          "type": "uint256"
        },
        {
          "indexed": true,
          "internalType": "address",
          "name": "bidder",
          "type": "address"
        },
        {
          "indexed": false,
          "internalType": "string",
          "name": "category",
          "type": "string"
        },
        {
          "indexed": false,
          "internalType": "uint256",
          "name": "price",
          "type": "uint256"
        }
      ],
      "name": "OfferPlaced",
      "type": "event"
    },
    {
      "anonymous": false,
      "inputs": [
        {
          "indexed": true,
          "internalType": "uint256",
          "name": "BasisFeePoints",
          "type": "uint256"
        }
      ],
      "name": "PlatformFeeChanged",
      "type": "event"
    },
    {
      "stateMutability": "payable",
      "type": "fallback"
    },
    {
      "inputs": [],
      "name": "admin",
      "outputs": [
        {
          "internalType": "address",
          "name": "",
          "type": "address"
        }
      ],
      "stateMutability": "view",
      "type": "function"
    },
    {
      "inputs": [],
      "name": "feeAddress",
      "outputs": [
        {
          "internalType": "address",
          "name": "",
          "type": "address"
        }
      ],
      "stateMutability": "view",
      "type": "function"
    },
    {
      "inputs": [],
      "name": "listingIsActive",
      "outputs": [
        {
          "internalType": "bool",
          "name": "",
          "type": "bool"
        }
      ],
      "stateMutability": "view",
      "type": "function"
    },
    {
      "inputs": [],
      "name": "pendingSuperAdmin",
      "outputs": [
        {
          "internalType": "address",
          "name": "",
          "type": "address"
        }
      ],
      "stateMutability": "view",
      "type": "function"
    },
    {
      "inputs": [],
      "name": "superAdmin",
      "outputs": [
        {
          "internalType": "address",
          "name": "",
          "type": "address"
        }
      ],
      "stateMutability": "view",
      "type": "function"
    },
    {
      "stateMutability": "payable",
      "type": "receive"
    },
    {
      "inputs": [
        {
          "internalType": "address",
          "name": "feeAddress_",
          "type": "address"
        }
      ],
      "name": "init",
      "outputs": [],
      "stateMutability": "nonpayable",
      "type": "function"
    },
    {
      "inputs": [
        {
          "internalType": "uint256",
          "name": "amount",
          "type": "uint256"
        }
      ],
      "name": "retrieveMoney",
      "outputs": [],
      "stateMutability": "nonpayable",
      "type": "function"
    },
    {
      "inputs": [
        {
          "internalType": "uint256",
          "name": "feeBasisPoints",
          "type": "uint256"
        }
      ],
      "name": "setSalesFeeBasisPoints",
      "outputs": [],
      "stateMutability": "nonpayable",
      "type": "function"
    },
    {
      "inputs": [
        {
          "internalType": "address",
          "name": "feeAddress_",
          "type": "address"
        }
      ],
      "name": "setFeeAddress",
      "outputs": [],
      "stateMutability": "nonpayable",
      "type": "function"
    },
    {
      "inputs": [
        {
          "internalType": "address",
          "name": "pendingSuperAdmin_",
          "type": "address"
        }
      ],
      "name": "setPendingSuperAdmin",
      "outputs": [],
      "stateMutability": "nonpayable",
      "type": "function"
    },
    {
      "inputs": [],
      "name": "approvePendingSuperAdmin",
      "outputs": [],
      "stateMutability": "nonpayable",
      "type": "function"
    },
    {
      "inputs": [
        {
          "internalType": "address",
          "name": "admin_",
          "type": "address"
        }
      ],
      "name": "setAdmin",
      "outputs": [],
      "stateMutability": "nonpayable",
      "type": "function"
    },
    {
      "inputs": [
        {
          "internalType": "address",
          "name": "nftContract",
          "type": "address"
        },
        {
          "internalType": "uint256",
          "name": "tokenId",
          "type": "uint256"
        },
        {
          "internalType": "uint256",
          "name": "price",
          "type": "uint256"
        },
        {
          "internalType": "string",
          "name": "category",
          "type": "string"
        }
      ],
      "name": "createMarketItem",
      "outputs": [],
      "stateMutability": "nonpayable",
      "type": "function"
    },
    {
      "inputs": [
        {
          "internalType": "address",
          "name": "nftContract",
          "type": "address"
        },
        {
          "internalType": "uint256",
          "name": "tokenId",
          "type": "uint256"
        },
        {
          "internalType": "uint256",
          "name": "price",
          "type": "uint256"
        },
        {
          "internalType": "uint256",
          "name": "itemId",
          "type": "uint256"
        }
      ],
      "name": "updateMarketItem",
      "outputs": [],
      "stateMutability": "nonpayable",
      "type": "function"
    },
    {
      "inputs": [
        {
          "internalType": "address",
          "name": "nftContract",
          "type": "address"
        },
        {
          "internalType": "uint256",
          "name": "itemId",
          "type": "uint256"
        }
      ],
      "name": "createMarketSale",
      "outputs": [],
      "stateMutability": "payable",
      "type": "function"
    },
    {
      "inputs": [
        {
          "internalType": "address",
          "name": "nftContract",
          "type": "address"
        },
        {
          "internalType": "uint256",
          "name": "itemId",
          "type": "uint256"
        }
      ],
      "name": "createMarketCancel",
      "outputs": [],
      "stateMutability": "nonpayable",
      "type": "function"
    },
    {
      "inputs": [
        {
          "internalType": "address",
          "name": "nftContract",
          "type": "address"
        },
        {
          "internalType": "uint256",
          "name": "itemId",
          "type": "uint256"
        }
      ],
      "name": "createMarketCancelAdmin",
      "outputs": [],
      "stateMutability": "nonpayable",
      "type": "function"
    },
    {
      "inputs": [],
      "name": "flipListingState",
      "outputs": [],
      "stateMutability": "nonpayable",
      "type": "function"
    },
    {
      "inputs": [
        {
          "internalType": "uint256",
          "name": "feeBasisPoints",
          "type": "uint256"
        },
        {
          "internalType": "address",
          "name": "creatorAddress",
          "type": "address"
        },
        {
          "internalType": "address",
          "name": "NFTAddress",
          "type": "address"
        }
      ],
      "name": "setCreatorFeeBasisPoints",
      "outputs": [],
      "stateMutability": "nonpayable",
      "type": "function"
    },
    {
      "inputs": [
        {
          "internalType": "uint256",
          "name": "feeBasisPoints",
          "type": "uint256"
        },
        {
          "internalType": "address",
          "name": "creatorAddress",
          "type": "address"
        },
        {
          "internalType": "address",
          "name": "NFTAddress",
          "type": "address"
        }
      ],
      "name": "setCreatorFeeBasisPointsByCreator",
      "outputs": [],
      "stateMutability": "nonpayable",
      "type": "function"
    },
    {
      "inputs": [
        {
          "internalType": "address",
          "name": "NFTAddress",
          "type": "address"
        }
      ],
      "name": "getCreatorFeeBasisPoints",
      "outputs": [
        {
          "components": [
            {
              "internalType": "address",
              "name": "creator",
              "type": "address"
            },
            {
              "internalType": "uint256",
              "name": "feeBasisPoints",
              "type": "uint256"
            }
          ],
          "internalType": "struct OctoplaceMarketUpgradeable.Creator",
          "name": "",
          "type": "tuple"
        }
      ],
      "stateMutability": "view",
      "type": "function"
    },
    {
      "inputs": [
        {
          "internalType": "uint256",
          "name": "id",
          "type": "uint256"
        }
      ],
      "name": "getByMarketId",
      "outputs": [
        {
          "components": [
            {
              "internalType": "uint256",
              "name": "itemId",
              "type": "uint256"
            },
            {
              "internalType": "address",
              "name": "nftContract",
              "type": "address"
            },
            {
              "internalType": "uint256",
              "name": "tokenId",
              "type": "uint256"
            },
            {
              "internalType": "address payable",
              "name": "seller",
              "type": "address"
            },
            {
              "internalType": "address payable",
              "name": "owner",
              "type": "address"
            },
            {
              "internalType": "uint256",
              "name": "highestOffer",
              "type": "uint256"
            },
            {
              "internalType": "address",
              "name": "bidder",
              "type": "address"
            },
            {
              "internalType": "string",
              "name": "category",
              "type": "string"
            },
            {
              "internalType": "uint256",
              "name": "price",
              "type": "uint256"
            },
            {
              "internalType": "bool",
              "name": "isSold",
              "type": "bool"
            }
          ],
          "internalType": "struct OctoplaceMarketUpgradeable.MarketItem",
          "name": "",
          "type": "tuple"
        }
      ],
      "stateMutability": "view",
      "type": "function"
    },
    {
      "inputs": [],
      "name": "getSalesFee",
      "outputs": [
        {
          "internalType": "uint256",
          "name": "",
          "type": "uint256"
        }
      ],
      "stateMutability": "view",
      "type": "function"
    },
    {
      "inputs": [
        {
          "internalType": "address",
          "name": "contract_",
          "type": "address"
        }
      ],
      "name": "getContractOwner",
      "outputs": [
        {
          "internalType": "address",
          "name": "",
          "type": "address"
        }
      ],
      "stateMutability": "view",
      "type": "function"
    },
    {
      "inputs": [],
      "name": "getLastMarketId",
      "outputs": [
        {
          "internalType": "uint256",
          "name": "",
          "type": "uint256"
        }
      ],
      "stateMutability": "view",
      "type": "function"
    }
  ],
  "bytecode": "0x608060405234801561001057600080fd5b50612679806100206000396000f3fe60806040526004361061015b5760003560e01c8063704b6c02116100c8578063c23b139e11610084578063d59d995011610061578063d59d995014610471578063ee45a711146104aa578063f851a440146104ca578063fdf98dc3146104ea57005b8063c23b139e1461041e578063c522c13d14610431578063d39ca7de1461045157005b8063704b6c02146102f7578063731aa6fa146103175780638705fcd41461039f57806391681214146103bf578063b3451eac146103d4578063bd943d95146103fe57005b806331aff94d1161011757806331aff94d14610242578063412753581461026257806348028d63146102825780635e878711146102a257806368e6c628146102c25780636c3ba611146102e257005b806319ab453c14610164578063274ebb131461018457806329575f6a146101a45780632d9e8c67146101e15780632f5ab972146101f657806330317f071461021557005b3661016257005b005b34801561017057600080fd5b5061016261017f366004611e6b565b61050a565b34801561019057600080fd5b5061016261019f366004611e88565b61065d565b3480156101b057600080fd5b506035546101c4906001600160a01b031681565b6040516001600160a01b0390911681526020015b60405180910390f35b3480156101ed57600080fd5b50610162610727565b34801561020257600080fd5b50603a545b6040519081526020016101d8565b34801561022157600080fd5b50610235610230366004611e88565b6107a0565b6040516101d89190611ef1565b34801561024e57600080fd5b5061016261025d366004611fb7565b61095d565b34801561026e57600080fd5b506038546101c4906001600160a01b031681565b34801561028e57600080fd5b506036546101c4906001600160a01b031681565b3480156102ae57600080fd5b506101626102bd366004611ff9565b610a2b565b3480156102ce57600080fd5b506101626102dd366004612034565b610c91565b3480156102ee57600080fd5b50610162610e4f565b34801561030357600080fd5b50610162610312366004611e6b565b610e8d565b34801561032357600080fd5b5061037b610332366004611e6b565b604080518082018252600080825260209182018190526001600160a01b039384168152603d82528290208251808401909352805490931682526001909201549181019190915290565b6040805182516001600160a01b0316815260209283015192810192909252016101d8565b3480156103ab57600080fd5b506101626103ba366004611e6b565b610ed9565b3480156103cb57600080fd5b50610207610f25565b3480156103e057600080fd5b50603b546103ee9060ff1681565b60405190151581526020016101d8565b34801561040a57600080fd5b50610162610419366004612034565b610f35565b61016261042c366004612034565b610fb2565b34801561043d57600080fd5b5061016261044c366004611e88565b6117a5565b34801561045d57600080fd5b5061016261046c366004611e6b565b611824565b34801561047d57600080fd5b506101c461048c366004611e6b565b6001600160a01b039081166000908152603960205260409020541690565b3480156104b657600080fd5b506101626104c5366004612060565b611896565b3480156104d657600080fd5b506037546101c4906001600160a01b031681565b3480156104f657600080fd5b50610162610505366004611fb7565b611ca2565b600054610100900460ff161580801561052a5750600054600160ff909116105b806105445750303b158015610544575060005460ff166001145b6105ac5760405162461bcd60e51b815260206004820152602e60248201527f496e697469616c697a61626c653a20636f6e747261637420697320616c72656160448201526d191e481a5b9a5d1a585b1a5e995960921b60648201526084015b60405180910390fd5b6000805460ff1916600117905580156105cf576000805461ff0019166101001790555b6105d7611d21565b60358054336001600160a01b031991821617909155603880549091166001600160a01b038416179055610190603a55603b805460ff191660011790558015610659576000805461ff0019169055604051600181527f7f26b83ff96e1f2b6a682f133852f6798a09c465da95921460cefb38474024989060200160405180910390a15b5050565b6035546001600160a01b031633146106875760405162461bcd60e51b81526004016105a3906120f6565b478111156106ed5760405162461bcd60e51b815260206004820152602d60248201527f596f752063616e206e6f74207769746864726177206d6f7265206d6f6e65792060448201526c7468616e20746865726520697360981b60648201526084016105a3565b6038546040516001600160a01b039091169082156108fc029083906000818181858888f19350505050158015610659573d6000803e3d6000fd5b6035546001600160a01b031633146107515760405162461bcd60e51b81526004016105a3906120f6565b6036546001600160a01b03166107795760405162461bcd60e51b81526004016105a390612142565b60368054603580546001600160a01b03199081166001600160a01b03841617909155169055565b604080516101408101825260008082526020820181905291810182905260608082018390526080820183905260a0820183905260c0820183905260e082015261010081018290526101208101919091526033548211156108355760405162461bcd60e51b815260206004820152601060248201526f1a5908191bd95cdb89dd08195e1a5cdd60821b60448201526064016105a3565b6000828152603c60209081526040918290208251610140810184528154815260018201546001600160a01b0390811693820193909352600282015493810193909352600381015482166060840152600481015482166080840152600581015460a0840152600681015490911660c083015260078101805460e0840191906108bb9061218b565b80601f01602080910402602001604051908101604052809291908181526020018280546108e79061218b565b80156109345780601f1061090957610100808354040283529160200191610934565b820191906000526020600020905b81548152906001019060200180831161091757829003601f168201915b50505091835250506008820154602082015260099091015460ff16151560409091015292915050565b6037546001600160a01b031633148061098057506035546001600160a01b031633145b61099c5760405162461bcd60e51b81526004016105a3906121c5565b6103e88311156109be5760405162461bcd60e51b81526004016105a39061220b565b6001600160a01b038181166000818152603d60209081526040918290206001810188905580546001600160a01b031916948716948517905590518681527f14029b2a500a1561bbe08c538f86c05a18ca270a8ec4786185fd69dde6230120910160405180910390a3505050565b610a33611d52565b603b5460ff161515600114610a7d5760405162461bcd60e51b815260206004820152601060248201526f131a5cdd1a5b99c8191a5cd8589b195960821b60448201526064016105a3565b60008211610ac55760405162461bcd60e51b81526020600482015260156024820152744e6f206974656d20666f722066726565206865726560581b60448201526064016105a3565b6000818152603c602052604090206009015460ff1615610af75760405162461bcd60e51b81526004016105a39061224c565b6000818152603c60205260409020600101546001600160a01b03858116911614610b5d5760405162461bcd60e51b81526020600482015260176024820152764e6f7420636f7272656374204e4654206164647265737360481b60448201526064016105a3565b6000818152603c60205260409020600201548314610bb35760405162461bcd60e51b8152602060048201526013602482015272139bdd0818dbdc9c9958dd081d1bdad95b9259606a1b60448201526064016105a3565b6000818152603c60205260409020600301546001600160a01b03163314610c1c5760405162461bcd60e51b815260206004820152601b60248201527f4f6e6c792073656c6c65722063616e20757064617465204974656d000000000060448201526064016105a3565b6000818152603c602052604080822060088101859055905133926001600160a01b0388169285927f74afb23ef53a4083f1bdad10c6c15d0aaf884c99cff7c59febfa6659a543cc6192610c7a928a926007909101908a9083906122f7565b60405180910390a4610c8b60018055565b50505050565b610c99611d52565b6037546001600160a01b0316331480610cbc57506035546001600160a01b031633145b610cd85760405162461bcd60e51b81526004016105a3906121c5565b6000818152603c602052604090206009015460ff1615610d0a5760405162461bcd60e51b81526004016105a39061224c565b6000818152603c60205260408082206002810154600882019390935560098101805460ff191660011790556003810154600491820180546001600160a01b0319166001600160a01b0392831690811790915592516323b872dd60e01b81523092810192909252602482019290925260448101839052908416906323b872dd90606401600060405180830381600087803b158015610da657600080fd5b505af1158015610dba573d6000803e3d6000fd5b50505050610dcc603480546001019055565b6000828152603c602052604080822060048101546003820154600180840154600285015495516001600160a01b0394851697938516968a967f895a96f6ac8d73df2b06b1075893880803453f7110c94f09757b5e9864cfee6796610e3d96941694919360079091019290919061233a565b60405180910390a45061065960018055565b6035546001600160a01b03163314610e795760405162461bcd60e51b81526004016105a3906120f6565b603b805460ff19811660ff90911615179055565b6035546001600160a01b03163314610eb75760405162461bcd60e51b81526004016105a3906120f6565b603780546001600160a01b0319166001600160a01b0392909216919091179055565b6035546001600160a01b03163314610f035760405162461bcd60e51b81526004016105a3906120f6565b603880546001600160a01b0319166001600160a01b0392909216919091179055565b6000610f3060335490565b905090565b610f3d611d52565b6000818152603c60205260409020600301546001600160a01b03163314610cd85760405162461bcd60e51b815260206004820152602360248201527f596f75206861766520746f206265207468652073656c6c657220746f2063616e60448201526218d95b60ea1b60648201526084016105a3565b610fba611d52565b6000818152603c602052604090206009015460ff1615610fec5760405162461bcd60e51b81526004016105a39061224c565b6000818152603c60205260409020600881015460028201546001909201549091906001600160a01b0390811690851681146110635760405162461bcd60e51b81526020600482015260176024820152764e6f7420636f7272656374204e4654206164647265737360481b60448201526064016105a3565b8234146110cc5760405162461bcd60e51b815260206004820152603160248201527f506c65617365206d616b652074686520707269636520746f2062652073616d65604482015270206173206c697374696e6720707269636560781b60648201526084016105a3565b6000831161111c5760405162461bcd60e51b815260206004820152601860248201527f4974656d20697320616c72656164792063616e63656c6564000000000000000060448201526064016105a3565b6000848152603c60209081526040808320600301546001600160a01b038581168552603d90935290832054908216926064928392168015611240576001600160a01b0386166000908152603d6020526040902060010154606490849061118461271034612377565b61118e9190612399565b6111989190612399565b6111a29190612377565b91506000816001600160a01b03168360405160006040518083038185875af1925050503d80600081146111f1576040519150601f19603f3d011682016040523d82523d6000602084013e6111f6565b606091505b505090508061123a5760405162461bcd60e51b815260206004820152601060248201526f2a3930b739b332b9103330b4b632b21760811b60448201526064016105a3565b50611365565b61124986611db1565b156113655760405163152a902d60e11b81526004810188905234602482015260009081906001600160a01b03891690632a55205a906044016040805180830381865afa15801561129d573d6000803e3d6000fd5b505050506040513d601f19601f820116820180604052508101906112c191906123b6565b915091506000826001600160a01b03168260405160006040518083038185875af1925050503d8060008114611312576040519150601f19603f3d011682016040523d82523d6000602084013e611317565b606091505b50509050819450829350806113615760405162461bcd60e51b815260206004820152601060248201526f2a3930b739b332b9103330b4b632b21760811b60448201526064016105a3565b5050505b6000898152603c6020526040902060098101805460ff1916600117905560040180546001600160a01b031916331790556113a3603480546001019055565b6040516323b872dd60e01b8152306004820152336024820152604481018890526001600160a01b038b16906323b872dd90606401600060405180830381600087803b1580156113f157600080fd5b505af1158015611405573d6000803e3d6000fd5b505050506000606485603a546127103461141f9190612377565b6114299190612399565b6114339190612399565b61143d9190612377565b905060008161144c85346123e4565b61145691906123e4565b90506000876001600160a01b03168260405160006040518083038185875af1925050503d80600081146114a5576040519150601f19603f3d011682016040523d82523d6000602084013e6114aa565b606091505b50509050806114fb5760405162461bcd60e51b815260206004820152601a60248201527f5472616e7366657220746f2073656c6c6572206661696c65642e00000000000060448201526064016105a3565b6038546040516000916001600160a01b03169085908381818185875af1925050503d8060008114611548576040519150601f19603f3d011682016040523d82523d6000602084013e61154d565b606091505b50509050806115955760405162461bcd60e51b81526020600482015260146024820152732a3930b739b332b9102332b2903330b4b632b21760611b60448201526064016105a3565b60008d8152603c602090815260408083208151610140810183528154815260018201546001600160a01b0390811694820194909452600282015492810192909252600381015483166060830152600481015483166080830152600581015460a0830152600681015490921660c082015260078201805491929160e08401919061161d9061218b565b80601f01602080910402602001604051908101604052809291908181526020018280546116499061218b565b80156116965780601f1061166b57610100808354040283529160200191611696565b820191906000526020600020905b81548152906001019060200180831161167957829003601f168201915b50505050508152602001600882015481526020016009820160009054906101000a900460ff161515151581525050905080608001516001600160a01b031681606001516001600160a01b031682600001517f895a96f6ac8d73df2b06b1075893880803453f7110c94f09757b5e9864cfee67846020015185604001518660e0015187610100015160016040516117309594939291906123f7565b60405180910390a460385460408051868152602081018890529081018990526001600160a01b0388811692811691908d16907f7e06111c2f996dd70140b09a1b769e48e2e8fffbd0179a6e24552f65d25b8b169060600160405180910390a45050505050505050505050505061065960018055565b6035546001600160a01b031633146117cf5760405162461bcd60e51b81526004016105a3906120f6565b6103e88111156117f15760405162461bcd60e51b81526004016105a39061220b565b603a81905560405181907f72b05fd7e6e407beabebd17ae121166880efdc19a2a9b08063eafc0c001e470a90600090a250565b6035546001600160a01b0316331461184e5760405162461bcd60e51b81526004016105a3906120f6565b6001600160a01b0381166118745760405162461bcd60e51b81526004016105a390612142565b603680546001600160a01b0319166001600160a01b0392909216919091179055565b61189e611d52565b603b5460ff1615156001146118e85760405162461bcd60e51b815260206004820152601060248201526f131a5cdd1a5b99c8191a5cd8589b195960821b60448201526064016105a3565b600083116119305760405162461bcd60e51b81526020600482015260156024820152744e6f206974656d20666f722066726565206865726560581b60448201526064016105a3565b60408051600481526024810182526020810180516001600160e01b0316638da5cb5b60e01b17905290516000916001600160a01b03881691611972919061241e565b6000604051808303816000865af19150503d80600081146119af576040519150601f19603f3d011682016040523d82523d6000602084013e6119b4565b606091505b505090508015611a5057856001600160a01b0316638da5cb5b6040518163ffffffff1660e01b8152600401602060405180830381865afa1580156119fc573d6000803e3d6000fd5b505050506040513d601f19601f82011682018060405250810190611a20919061243a565b6001600160a01b03878116600090815260396020526040902080546001600160a01b031916929091169190911790555b611a5e603380546001019055565b6000611a6960335490565b9050604051806101400160405280828152602001886001600160a01b03168152602001878152602001336001600160a01b0316815260200160006001600160a01b031681526020016000815260200160006001600160a01b0316815260200185858080601f016020809104026020016040519081016040528093929190818152602001838380828437600092018290525093855250505060208083018990526040928301829052848252603c81529082902083518155908301516001820180546001600160a01b03199081166001600160a01b0393841617909155928401516002830155606084015160038301805485169183169190911790556080840151600483018054851691831691909117905560a0840151600583015560c084015160068301805490941691161790915560e08201516007820190611bab90826124bc565b506101008201516008820155610120909101516009909101805460ff19169115159190911790556040516323b872dd60e01b8152336004820152306024820152604481018790526001600160a01b038816906323b872dd90606401600060405180830381600087803b158015611c2057600080fd5b505af1158015611c34573d6000803e3d6000fd5b50505050336001600160a01b0316876001600160a01b0316827f058ba5dd04a75d8581491c06ed3308197306a78713282c4d1bdeef5bde9ba83389600089898c6000604051611c889695949392919061257c565b60405180910390a45050611c9b60018055565b5050505050565b6103e8831115611cc45760405162461bcd60e51b81526004016105a39061220b565b6001600160a01b038181166000908152603960205260409020541633146109be5760405162461bcd60e51b81526020600482015260116024820152702737ba103b30b634b21031b932b0ba37b960791b60448201526064016105a3565b600054610100900460ff16611d485760405162461bcd60e51b81526004016105a3906125d6565b611d50611e2c565b565b600260015403611da45760405162461bcd60e51b815260206004820152601f60248201527f5265656e7472616e637947756172643a207265656e7472616e742063616c6c0060448201526064016105a3565b6002600155565b60018055565b6040516301ffc9a760e01b815263152a902d60e11b600482015260009081906001600160a01b038416906301ffc9a790602401602060405180830381865afa158015611e01573d6000803e3d6000fd5b505050506040513d601f19601f82011682018060405250810190611e259190612621565b9392505050565b600054610100900460ff16611dab5760405162461bcd60e51b81526004016105a3906125d6565b6001600160a01b0381168114611e6857600080fd5b50565b600060208284031215611e7d57600080fd5b8135611e2581611e53565b600060208284031215611e9a57600080fd5b5035919050565b60005b83811015611ebc578181015183820152602001611ea4565b50506000910152565b60008151808452611edd816020860160208601611ea1565b601f01601f19169290920160200192915050565b602081528151602082015260006020830151611f1860408401826001600160a01b03169052565b50604083015160608301526060830151611f3d60808401826001600160a01b03169052565b5060808301516001600160a01b03811660a08401525060a083015160c083015260c0830151611f7760e08401826001600160a01b03169052565b5060e08301516101406101008181860152611f96610160860184611ec5565b90860151610120868101919091529095015115159301929092525090919050565b600080600060608486031215611fcc57600080fd5b833592506020840135611fde81611e53565b91506040840135611fee81611e53565b809150509250925092565b6000806000806080858703121561200f57600080fd5b843561201a81611e53565b966020860135965060408601359560600135945092505050565b6000806040838503121561204757600080fd5b823561205281611e53565b946020939093013593505050565b60008060008060006080868803121561207857600080fd5b853561208381611e53565b94506020860135935060408601359250606086013567ffffffffffffffff808211156120ae57600080fd5b818801915088601f8301126120c257600080fd5b8135818111156120d157600080fd5b8960208285010111156120e357600080fd5b9699959850939650602001949392505050565b6020808252602c908201527f6f6e6c79207468652073757065722061646d696e2063616e20706572666f726d60408201526b103a3434b99030b1ba34b7b760a11b606082015260800190565b60208082526029908201527f5a65726f20616464726573732063616e6e6f74206265206d61646520612073756040820152683832b91030b236b4b760b91b606082015260800190565b600181811c9082168061219f57607f821691505b6020821081036121bf57634e487b7160e01b600052602260045260246000fd5b50919050565b60208082526026908201527f6f6e6c79207468652061646d696e2063616e20706572666f726d20746869732060408201526530b1ba34b7b760d11b606082015260800190565b60208082526021908201527f53616c6573204665652063616e7420626520686967686572207468616e2031306040820152602560f81b606082015260800190565b602080825260149082015273125d195b481a5cc8185b1c9958591e481cdbdb1960621b604082015260600190565b600081546122878161218b565b8085526020600183811680156122a457600181146122be576122ec565b60ff1985168884015283151560051b8801830195506122ec565b866000528260002060005b858110156122e45781548a82018601529083019084016122c9565b890184019650505b505050505092915050565b8581526001600160a01b038516602082015260a0604082018190526000906123219083018661227a565b6060830194909452509015156080909101529392505050565b60018060a01b038616815284602082015260a06040820152600061232160a083018661227a565b634e487b7160e01b600052601160045260246000fd5b60008261239457634e487b7160e01b600052601260045260246000fd5b500490565b80820281158282048414176123b0576123b0612361565b92915050565b600080604083850312156123c957600080fd5b82516123d481611e53565b6020939093015192949293505050565b818103818111156123b0576123b0612361565b60018060a01b038616815284602082015260a06040820152600061232160a0830186611ec5565b60008251612430818460208701611ea1565b9190910192915050565b60006020828403121561244c57600080fd5b8151611e2581611e53565b634e487b7160e01b600052604160045260246000fd5b601f8211156124b757600081815260208120601f850160051c810160208610156124945750805b601f850160051c820191505b818110156124b3578281556001016124a0565b5050505b505050565b815167ffffffffffffffff8111156124d6576124d6612457565b6124ea816124e4845461218b565b8461246d565b602080601f83116001811461251f57600084156125075750858301515b600019600386901b1c1916600185901b1785556124b3565b600085815260208120601f198616915b8281101561254e5788860151825594840194600190910190840161252f565b508582101561256c5787850151600019600388901b60f8161c191681555b5050505050600190811b01905550565b8681526001600160a01b038616602082015260a0604082018190528101849052838560c0830137600060c08583010152600060c0601f19601f87011683010190508360608301528215156080830152979650505050505050565b6020808252602b908201527f496e697469616c697a61626c653a20636f6e7472616374206973206e6f74206960408201526a6e697469616c697a696e6760a81b606082015260800190565b60006020828403121561263357600080fd5b81518015158114611e2557600080fdfea26469706673582212205f2b660910f7b33fde04f3ff7c52d251cd3f8aadccedc7eccffe6d917e943f2b64736f6c63430008110033",
  "immutableReferences": {},
  "source": "// SPDX-License-Identifier: MIT\npragma solidity ^0.8.17;\n\nimport \"@openzeppelin/contracts-upgradeable/utils/CountersUpgradeable.sol\";\nimport \"@openzeppelin/contracts-upgradeable/utils/AddressUpgradeable.sol\";\nimport \"@openzeppelin/contracts-upgradeable/utils/StringsUpgradeable.sol\";\nimport \"@openzeppelin/contracts-upgradeable/utils/introspection/IERC165Upgradeable.sol\";\nimport \"@openzeppelin/contracts-upgradeable/token/ERC721/IERC721ReceiverUpgradeable.sol\";\nimport \"@openzeppelin/contracts-upgradeable/token/ERC721/IERC721Upgradeable.sol\";\nimport \"@openzeppelin/contracts-upgradeable/utils/ContextUpgradeable.sol\";\nimport \"@openzeppelin/contracts-upgradeable/token/ERC721/extensions/IERC721MetadataUpgradeable.sol\";\nimport \"@openzeppelin/contracts-upgradeable/security/ReentrancyGuardUpgradeable.sol\";\nimport \"@openzeppelin/contracts-upgradeable/interfaces/IERC2981Upgradeable.sol\";\nimport \"@openzeppelin/contracts-upgradeable/proxy/utils/Initializable.sol\";\n\ninterface IOwnable {\n    function owner() external view  returns (address);\n}\n\ncontract OctoplaceMarketUpgradeable is Initializable, ReentrancyGuardUpgradeable {\n    using CountersUpgradeable for CountersUpgradeable.Counter;\n    CountersUpgradeable.Counter private _itemIds; // Id for each individual item\n    CountersUpgradeable.Counter private _itemsSold; // Number of items sold\n\n    bytes4 private constant _INTERFACE_ID_ERC2981 = 0x2a55205a;\n\n    /// @notice The super admin address / owner\n    address public superAdmin;\n    address public pendingSuperAdmin;\n\n    /// @notice The admin address\n    address public admin;\n\n    address public feeAddress;\n\n    mapping(address => address) private contractOwners;\n\n    uint256 salesFeeBasisPoints ;\n    bool public listingIsActive ;\n\n    struct MarketItem {\n        uint256 itemId;\n        address nftContract;\n        uint256 tokenId;\n        address payable seller;\n        address payable owner;\n        uint256 highestOffer;\n        address bidder;\n        string category;\n        uint256 price;\n        bool isSold;\n    }\n\n    struct Creator {\n        address creator;\n        uint256 feeBasisPoints;\n    }\n\n    //    mapping that keeps all items ever placed on the marketplace\n    mapping(uint256 => MarketItem) private idToMarketItem;\n\n    //    mapping NFT address to creators address\n    mapping(address => Creator) private AddressToCreatorFeeItem;\n\n    function init(address feeAddress_) public initializer() {\n\n        __ReentrancyGuard_init();\n        superAdmin = payable(msg.sender);\n        feeAddress = payable(feeAddress_);\n        salesFeeBasisPoints= 400;\n        listingIsActive = true;\n    }\n\n    fallback() external payable {}\n\n    receive() external payable {}\n\n    // Event called when a new Item is created\n    event MarketItemCreated(\n        uint256 indexed itemId,\n        address indexed nftContract,\n        uint256 tokenId,\n        address indexed seller,\n        address owner,\n        string category,\n        uint256 price,\n        bool isSold\n    );\n\n    // Event called when a new Item is updated\n    event MarketItemUpdated(\n        uint256 indexed itemId,\n        address indexed nftContract,\n        uint256 tokenId,\n        address indexed seller,\n        address owner,\n        string category,\n        uint256 price,\n        bool isSold\n    );\n\n    // Event called when an Item is sold\n    event MarketItemSale(\n        uint256 indexed itemId,\n        address nftContract,\n        uint256 tokenId,\n        address indexed seller,\n        address indexed owner,\n        string category,\n        uint256 price,\n        bool isSold\n    );\n\n    // Event when someone places a offer\n    event OfferPlaced(\n        uint256 indexed itemId,\n        address nftContract,\n        uint256 tokenId,\n        address indexed seller,\n        uint256 highestOffer,\n        address indexed bidder,\n        string category,\n        uint256 price\n    );\n\n    // Event when someone cancels a offer\n    event OfferCanceled(\n        uint256 indexed itemId,\n        address nftContract,\n        uint256 tokenId,\n        address indexed seller,\n        address indexed previousBidder,\n        uint256 price\n    );\n\n    // Event called TFuel is spit into creator fee, opentheta fee and payment to seller\n    event FeeSplit(\n        uint256 userPayout,\n        address indexed userAddress,\n        uint256 feePayout,\n        address indexed feeAddress,\n        uint256 creatorPayout,\n        address indexed creatorAddress\n    );\n\n    // Event called when creator base fee points are changed or set\n    event CreatorFeeChanged(\n        address indexed nftContract,\n        address indexed creatorAddress,\n        uint256 BasisFeePoints\n    );\n    // Event called when platform fee changes\n    event PlatformFeeChanged(uint256 indexed BasisFeePoints);\n    \n\n    /**\n     * @notice modifiers\n     */\n    modifier onlySuperAdmin() {\n        require(\n            msg.sender == superAdmin,\n            \"only the super admin can perform this action\"\n        );\n        _;\n    }\n\n    modifier onlyAdmin() {\n        require(\n            msg.sender == admin || msg.sender == superAdmin,\n            \"only the admin can perform this action\"\n        );\n        _;\n    }\n    \n    function retrieveMoney(uint256 amount) external onlySuperAdmin {\n        require(\n            amount <= address(this).balance,\n            \"You can not withdraw more money than there is\"\n        );\n        payable(feeAddress).transfer(amount);\n    }\n\n    function setSalesFeeBasisPoints(\n        uint256 feeBasisPoints\n    ) external onlySuperAdmin {\n        require(feeBasisPoints <= 1000, \"Sales Fee cant be higher than 10%\");\n        salesFeeBasisPoints = feeBasisPoints;\n        emit PlatformFeeChanged(salesFeeBasisPoints);\n    }\n\n    /**\n     * @notice Change the fee address\n     * @param feeAddress_ The address of the new fee address\n     */\n    function setFeeAddress(address feeAddress_) external onlySuperAdmin {\n        feeAddress = feeAddress_;\n    }\n\n    /**\n     * @notice Change the admin address\n     * @param pendingSuperAdmin_ The address of the new super admin\n     */\n    function setPendingSuperAdmin(address pendingSuperAdmin_) onlySuperAdmin external {\n        require(pendingSuperAdmin_ != address(0), \"Zero address cannot be made a super admin\");\n\t    pendingSuperAdmin = pendingSuperAdmin_;\n\t}\n\n    /**\n     * @notice approve the admin address change\n     */\n    function approvePendingSuperAdmin() onlySuperAdmin external {\n        require(pendingSuperAdmin != address(0), \"Zero address cannot be made a super admin\");\n\t    superAdmin = pendingSuperAdmin;\n\t    pendingSuperAdmin = address(0);\n\t}\n\n    /**\n     * @notice Change the admin address\n     * @param admin_ The address of the new admin\n     */\n    function setAdmin(address admin_) external onlySuperAdmin {\n        admin = admin_;\n    }\n\n    /// Check EIP2981 supported contracts fro royalties\n    function checkRoyalties(address _contract) internal view returns (bool) {\n        bool success = IERC165Upgradeable(_contract).supportsInterface(\n            _INTERFACE_ID_ERC2981\n        );\n        return success;\n    }\n\n    // Marketplace functions\n    function createMarketItem(\n        address nftContract,\n        uint256 tokenId,\n        uint256 price,\n        string calldata category\n    ) public nonReentrant {\n        require(listingIsActive == true, \"Listing disabled\");\n        require(price > 0, \"No item for free here\");\n        (bool isOwnerSupported, ) = nftContract.call(\n            abi.encodeWithSignature(\"owner()\")\n        );\n        if (isOwnerSupported) {\n            contractOwners[nftContract] = IOwnable(nftContract).owner();\n        }\n        _itemIds.increment();\n        uint256 itemId = _itemIds.current();\n        idToMarketItem[itemId] = MarketItem(\n            itemId,\n            nftContract,\n            tokenId,\n            payable(msg.sender),\n            payable(address(0)), // No owner for the item\n            0, // No offer\n            payable(address(0)), // No bidder\n            category,\n            price,\n            false\n        );\n        IERC721Upgradeable(nftContract).transferFrom(msg.sender, address(this), tokenId);\n        emit MarketItemCreated(\n            itemId,\n            nftContract,\n            tokenId,\n            msg.sender,\n            address(0),\n            category,\n            price,\n            false\n        );\n    }\n\n    function updateMarketItem(\n        address nftContract,\n        uint256 tokenId,\n        uint256 price,\n        uint256 itemId\n    ) public nonReentrant {\n        require(listingIsActive == true, \"Listing disabled\");\n        require(price > 0, \"No item for free here\");\n        require(idToMarketItem[itemId].isSold == false, \"Item is already sold\");\n        require(\n            idToMarketItem[itemId].nftContract == nftContract,\n            \"Not correct NFT address\"\n        );\n        require(\n            idToMarketItem[itemId].tokenId == tokenId,\n            \"Not correct tokenId\"\n        );\n        require(\n            idToMarketItem[itemId].seller == msg.sender,\n            \"Only seller can update Item\"\n        );\n        idToMarketItem[itemId].price = price;\n        emit MarketItemUpdated(\n            itemId,\n            nftContract,\n            tokenId,\n            msg.sender,\n            address(0),\n            idToMarketItem[itemId].category,\n            price,\n            false\n        );\n    }\n\n    function createMarketSale(\n        address nftContract,\n        uint256 itemId\n    ) public payable nonReentrant {\n        require(idToMarketItem[itemId].isSold == false, \"Item is already sold\");\n        uint256 price = idToMarketItem[itemId].price;\n        uint256 tokenId = idToMarketItem[itemId].tokenId;\n        address addressNFT = idToMarketItem[itemId].nftContract;\n        require(addressNFT == nftContract, \"Not correct NFT address\");\n        require(\n            msg.value == price,\n            \"Please make the price to be same as listing price\"\n        );\n        require(price > 0, \"Item is already canceled\");\n        address sellerAddress = idToMarketItem[itemId].seller;\n        uint marketFeeMultiplier=100;\n        uint creatorFeeMultiplier = 100;\n        uint256 creatorPayout = 0;\n        address creator = address(0);\n        // Read data from mappings\n        creator = AddressToCreatorFeeItem[addressNFT].creator;\n        if (creator != address(0x0)) {\n            // if creator is set\n            creatorPayout =\n                ((msg.value / 10000) *\n                    AddressToCreatorFeeItem[addressNFT].feeBasisPoints *\n                    creatorFeeMultiplier) /\n                100;\n            //            payable(creator).transfer(creatorPayout);\n            (bool success, ) = payable(creator).call{value: creatorPayout}(\"\");\n            require(success, \"Transfer failed.\");\n        } else {\n            if (checkRoyalties(addressNFT)) {\n                (address creatorAddr, uint256 royalityAmt) = IERC2981Upgradeable(\n                    addressNFT\n                ).royaltyInfo(tokenId, msg.value);\n                (bool success, ) = payable(creatorAddr).call{\n                    value: royalityAmt\n                }(\"\");\n                creatorPayout = royalityAmt;\n                creator = creatorAddr;\n                require(success, \"Transfer failed.\");\n            }\n        }\n        // set in marketItem\n        idToMarketItem[itemId].isSold = true;\n        idToMarketItem[itemId].owner = payable(msg.sender);\n        _itemsSold.increment();\n\n        IERC721Upgradeable(nftContract).transferFrom(address(this), msg.sender, tokenId);\n\n        // Calculate Payouts\n        uint256 feePayout = ((msg.value / 10000) *\n            salesFeeBasisPoints *\n            marketFeeMultiplier) / 100;\n        uint256 userPayout = msg.value - creatorPayout - feePayout;\n        // Payout to user and owner (opentheta)\n        //        payable(sellerAddress).transfer(userPayout);\n        //        payable(feeAddress).transfer(feePayout);\n        (bool successSeller, ) = payable(sellerAddress).call{value: userPayout}(\n            \"\"\n        );\n        require(successSeller, \"Transfer to seller failed.\");\n        (bool successOwner, ) = payable(feeAddress).call{value: feePayout}(\"\");\n        require(successOwner, \"Transfer Fee failed.\");\n        MarketItem memory item = idToMarketItem[itemId];\n        // Through events\n        emit MarketItemSale(\n            item.itemId,\n            item.nftContract,\n            item.tokenId,\n            item.seller,\n            item.owner,\n            item.category,\n            item.price,\n            true\n        );\n        emit FeeSplit(\n            userPayout,\n            sellerAddress,\n            feePayout,\n            feeAddress,\n            creatorPayout,\n            creator\n        );\n    }\n\n    function createMarketCancel(\n        address nftContract,\n        uint256 itemId\n    ) public nonReentrant {\n        require(\n            msg.sender == idToMarketItem[itemId].seller,\n            \"You have to be the seller to cancel\"\n        );\n        require(idToMarketItem[itemId].isSold == false, \"Item is already sold\");\n        // Read data from mappings\n        uint256 tokenId = idToMarketItem[itemId].tokenId;\n        // set in marketItem\n        idToMarketItem[itemId].price = 0;\n        idToMarketItem[itemId].isSold = true;\n        idToMarketItem[itemId].owner = payable(idToMarketItem[itemId].seller);\n        IERC721Upgradeable(nftContract).transferFrom(\n            address(this),\n            idToMarketItem[itemId].seller,\n            tokenId\n        );\n\n        _itemsSold.increment();\n\n        // Through event\n        emit MarketItemSale(\n            itemId,\n            idToMarketItem[itemId].nftContract,\n            idToMarketItem[itemId].tokenId,\n            idToMarketItem[itemId].seller,\n            idToMarketItem[itemId].owner,\n            idToMarketItem[itemId].category,\n            0,\n            true\n        );\n    }\n\n    function createMarketCancelAdmin(\n        address nftContract,\n        uint256 itemId\n    ) public nonReentrant onlyAdmin {\n        require(idToMarketItem[itemId].isSold == false, \"Item is already sold\");\n        // Read data from mappings\n        uint256 tokenId = idToMarketItem[itemId].tokenId;\n        // set in marketItem\n        idToMarketItem[itemId].price = 0;\n        idToMarketItem[itemId].isSold = true;\n        idToMarketItem[itemId].owner = payable(idToMarketItem[itemId].seller);\n        IERC721Upgradeable(nftContract).transferFrom(\n            address(this),\n            idToMarketItem[itemId].seller,\n            tokenId\n        );\n\n\n        _itemsSold.increment();\n\n        // Through event\n        emit MarketItemSale(\n            itemId,\n            idToMarketItem[itemId].nftContract,\n            idToMarketItem[itemId].tokenId,\n            idToMarketItem[itemId].seller,\n            idToMarketItem[itemId].owner,\n            idToMarketItem[itemId].category,\n            0,\n            true\n        );\n    }\n    \n    /*\n     * Pause listings if active\n     */\n    function flipListingState() public onlySuperAdmin {\n        listingIsActive = !listingIsActive;\n    }\n\n    // set creator fee\n    function setCreatorFeeBasisPoints(\n        uint256 feeBasisPoints,\n        address creatorAddress,\n        address NFTAddress\n    ) public onlyAdmin {\n        require(feeBasisPoints <= 1000, \"Sales Fee cant be higher than 10%\");\n        AddressToCreatorFeeItem[NFTAddress].feeBasisPoints = feeBasisPoints;\n        AddressToCreatorFeeItem[NFTAddress].creator = payable(creatorAddress);\n        emit CreatorFeeChanged(NFTAddress, creatorAddress, feeBasisPoints);\n    }\n\n    // set creator fee\n    function setCreatorFeeBasisPointsByCreator(\n        uint256 feeBasisPoints,\n        address creatorAddress,\n        address NFTAddress\n    ) public {\n        require(feeBasisPoints <= 1000, \"Sales Fee cant be higher than 10%\");\n        require(contractOwners[NFTAddress] == msg.sender, \"Not valid creator\");\n        AddressToCreatorFeeItem[NFTAddress].feeBasisPoints = feeBasisPoints;\n        AddressToCreatorFeeItem[NFTAddress].creator = payable(creatorAddress);\n        emit CreatorFeeChanged(NFTAddress, creatorAddress, feeBasisPoints);\n    }\n\n    // get creator fee\n    function getCreatorFeeBasisPoints(\n        address NFTAddress\n    ) public view returns (Creator memory) {\n        return AddressToCreatorFeeItem[NFTAddress];\n    }\n\n    function getByMarketId(uint256 id) public view returns (MarketItem memory) {\n        require(id <= _itemIds.current(), \"id doesn't exist\");\n        return idToMarketItem[id];\n    }\n    function getSalesFee() public view returns (uint256) {\n        return salesFeeBasisPoints;\n    }\n    function getContractOwner(address contract_) public view returns (address) {\n        return contractOwners[contract_];\n    }\n    \n    function getLastMarketId() public view returns (uint256) {\n        return _itemIds.current();\n    }\n}",
  "sourcePath": "/Users/shivam/github/contracts-upgradable/contracts/OctoplaceUpgradeable.sol",
  "compiler": {
    "name": "solc",
    "version": "0.8.17+commit.8df45f5f.Emscripten.clang"
  },
  "schemaVersion": "3.4.7",
  "updatedAt": "2023-11-16T18:30:29.809Z",
  "networkType": "ethereum",
  "devdoc": {
    "kind": "dev",
    "methods": {
      "setAdmin(address)": {
        "params": {
          "admin_": "The address of the new admin"
        }
      },
      "setFeeAddress(address)": {
        "params": {
          "feeAddress_": "The address of the new fee address"
        }
      },
      "setPendingSuperAdmin(address)": {
        "params": {
          "pendingSuperAdmin_": "The address of the new super admin"
        }
      }
    },
    "version": 1
  },
  "userdoc": {
    "kind": "user",
    "methods": {
      "admin()": {
        "notice": "The admin address"
      },
      "approvePendingSuperAdmin()": {
        "notice": "approve the admin address change"
      },
      "setAdmin(address)": {
        "notice": "Change the admin address"
      },
      "setFeeAddress(address)": {
        "notice": "Change the fee address"
      },
      "setPendingSuperAdmin(address)": {
        "notice": "Change the admin address"
      },
      "superAdmin()": {
        "notice": "The super admin address / owner"
      }
    },
    "version": 1
  }
}