{
  "contractName": "SwapNFTUpgradeable",
  "abi": [
    {
      "anonymous": false,
      "inputs": [
        {
          "indexed": false,
          "internalType": "uint8",
          "name": "version",
          "type": "uint8"
        }
      ],
      "name": "Initialized",
      "type": "event"
    },
    {
      "anonymous": false,
      "inputs": [
        {
          "indexed": true,
          "internalType": "bytes32",
          "name": "role",
          "type": "bytes32"
        },
        {
          "indexed": true,
          "internalType": "bytes32",
          "name": "previousAdminRole",
          "type": "bytes32"
        },
        {
          "indexed": true,
          "internalType": "bytes32",
          "name": "newAdminRole",
          "type": "bytes32"
        }
      ],
      "name": "RoleAdminChanged",
      "type": "event"
    },
    {
      "anonymous": false,
      "inputs": [
        {
          "indexed": true,
          "internalType": "bytes32",
          "name": "role",
          "type": "bytes32"
        },
        {
          "indexed": true,
          "internalType": "address",
          "name": "account",
          "type": "address"
        },
        {
          "indexed": true,
          "internalType": "address",
          "name": "sender",
          "type": "address"
        }
      ],
      "name": "RoleGranted",
      "type": "event"
    },
    {
      "anonymous": false,
      "inputs": [
        {
          "indexed": true,
          "internalType": "bytes32",
          "name": "role",
          "type": "bytes32"
        },
        {
          "indexed": true,
          "internalType": "address",
          "name": "account",
          "type": "address"
        },
        {
          "indexed": true,
          "internalType": "address",
          "name": "sender",
          "type": "address"
        }
      ],
      "name": "RoleRevoked",
      "type": "event"
    },
    {
      "anonymous": false,
      "inputs": [
        {
          "indexed": false,
          "internalType": "address",
          "name": "collectionAddress",
          "type": "address"
        },
        {
          "indexed": false,
          "internalType": "address",
          "name": "createdBy",
          "type": "address"
        },
        {
          "indexed": false,
          "internalType": "uint256",
          "name": "tokenId",
          "type": "uint256"
        }
      ],
      "name": "SwapListingCreated",
      "type": "event"
    },
    {
      "anonymous": false,
      "inputs": [
        {
          "indexed": false,
          "internalType": "address",
          "name": "owner",
          "type": "address"
        },
        {
          "indexed": false,
          "internalType": "uint256",
          "name": "listingId",
          "type": "uint256"
        }
      ],
      "name": "SwapListingWithdraw",
      "type": "event"
    },
    {
      "anonymous": false,
      "inputs": [
        {
          "indexed": false,
          "internalType": "address",
          "name": "acceptedBy",
          "type": "address"
        },
        {
          "indexed": false,
          "internalType": "uint256",
          "name": "offerId",
          "type": "uint256"
        },
        {
          "indexed": false,
          "internalType": "uint256",
          "name": "listingId",
          "type": "uint256"
        }
      ],
      "name": "SwapOfferAccepted",
      "type": "event"
    },
    {
      "anonymous": false,
      "inputs": [
        {
          "indexed": false,
          "internalType": "uint256",
          "name": "listingId",
          "type": "uint256"
        },
        {
          "indexed": false,
          "internalType": "address",
          "name": "from",
          "type": "address"
        },
        {
          "indexed": false,
          "internalType": "address",
          "name": "offerCollection",
          "type": "address"
        },
        {
          "indexed": false,
          "internalType": "uint256",
          "name": "tokenId",
          "type": "uint256"
        }
      ],
      "name": "SwapOfferCreated",
      "type": "event"
    },
    {
      "anonymous": false,
      "inputs": [
        {
          "indexed": false,
          "internalType": "address",
          "name": "declinedBy",
          "type": "address"
        },
        {
          "indexed": false,
          "internalType": "uint256",
          "name": "offerId",
          "type": "uint256"
        },
        {
          "indexed": false,
          "internalType": "uint256",
          "name": "listingId",
          "type": "uint256"
        }
      ],
      "name": "SwapOfferDeclied",
      "type": "event"
    },
    {
      "anonymous": false,
      "inputs": [
        {
          "indexed": false,
          "internalType": "address",
          "name": "owner",
          "type": "address"
        },
        {
          "indexed": false,
          "internalType": "uint256",
          "name": "offerId",
          "type": "uint256"
        }
      ],
      "name": "SwapOfferWithdraw",
      "type": "event"
    },
    {
      "anonymous": false,
      "inputs": [
        {
          "indexed": false,
          "internalType": "address",
          "name": "newTreasuryWallet",
          "type": "address"
        }
      ],
      "name": "TreasuryWalletChanged",
      "type": "event"
    },
    {
      "anonymous": false,
      "inputs": [
        {
          "indexed": false,
          "internalType": "uint256",
          "name": "newTxCharge",
          "type": "uint256"
        }
      ],
      "name": "TxChargeChanged",
      "type": "event"
    },
    {
      "inputs": [],
      "name": "DEFAULT_ADMIN_ROLE",
      "outputs": [
        {
          "internalType": "bytes32",
          "name": "",
          "type": "bytes32"
        }
      ],
      "stateMutability": "view",
      "type": "function"
    },
    {
      "inputs": [
        {
          "internalType": "bytes32",
          "name": "role",
          "type": "bytes32"
        }
      ],
      "name": "getRoleAdmin",
      "outputs": [
        {
          "internalType": "bytes32",
          "name": "",
          "type": "bytes32"
        }
      ],
      "stateMutability": "view",
      "type": "function"
    },
    {
      "inputs": [
        {
          "internalType": "bytes32",
          "name": "role",
          "type": "bytes32"
        },
        {
          "internalType": "address",
          "name": "account",
          "type": "address"
        }
      ],
      "name": "grantRole",
      "outputs": [],
      "stateMutability": "nonpayable",
      "type": "function"
    },
    {
      "inputs": [
        {
          "internalType": "bytes32",
          "name": "role",
          "type": "bytes32"
        },
        {
          "internalType": "address",
          "name": "account",
          "type": "address"
        }
      ],
      "name": "hasRole",
      "outputs": [
        {
          "internalType": "bool",
          "name": "",
          "type": "bool"
        }
      ],
      "stateMutability": "view",
      "type": "function"
    },
    {
      "inputs": [
        {
          "internalType": "bytes32",
          "name": "role",
          "type": "bytes32"
        },
        {
          "internalType": "address",
          "name": "account",
          "type": "address"
        }
      ],
      "name": "renounceRole",
      "outputs": [],
      "stateMutability": "nonpayable",
      "type": "function"
    },
    {
      "inputs": [
        {
          "internalType": "bytes32",
          "name": "role",
          "type": "bytes32"
        },
        {
          "internalType": "address",
          "name": "account",
          "type": "address"
        }
      ],
      "name": "revokeRole",
      "outputs": [],
      "stateMutability": "nonpayable",
      "type": "function"
    },
    {
      "inputs": [
        {
          "internalType": "bytes4",
          "name": "interfaceId",
          "type": "bytes4"
        }
      ],
      "name": "supportsInterface",
      "outputs": [
        {
          "internalType": "bool",
          "name": "",
          "type": "bool"
        }
      ],
      "stateMutability": "view",
      "type": "function"
    },
    {
      "inputs": [],
      "name": "txCharge",
      "outputs": [
        {
          "internalType": "uint256",
          "name": "",
          "type": "uint256"
        }
      ],
      "stateMutability": "view",
      "type": "function"
    },
    {
      "inputs": [
        {
          "internalType": "address",
          "name": "admin_",
          "type": "address"
        },
        {
          "internalType": "address",
          "name": "dataContract_",
          "type": "address"
        }
      ],
      "name": "init",
      "outputs": [],
      "stateMutability": "nonpayable",
      "type": "function"
    },
    {
      "inputs": [
        {
          "internalType": "uint256",
          "name": "tokenId_",
          "type": "uint256"
        },
        {
          "internalType": "address",
          "name": "nftContract_",
          "type": "address"
        }
      ],
      "name": "createListing",
      "outputs": [],
      "stateMutability": "payable",
      "type": "function"
    },
    {
      "inputs": [
        {
          "internalType": "uint256",
          "name": "tokenId_",
          "type": "uint256"
        },
        {
          "internalType": "address",
          "name": "nftContract_",
          "type": "address"
        },
        {
          "internalType": "uint256",
          "name": "listingId_",
          "type": "uint256"
        }
      ],
      "name": "createOffer",
      "outputs": [],
      "stateMutability": "nonpayable",
      "type": "function"
    },
    {
      "inputs": [
        {
          "internalType": "uint256",
          "name": "offerId_",
          "type": "uint256"
        },
        {
          "internalType": "uint256",
          "name": "listingId_",
          "type": "uint256"
        }
      ],
      "name": "declineOffer",
      "outputs": [],
      "stateMutability": "nonpayable",
      "type": "function"
    },
    {
      "inputs": [
        {
          "internalType": "uint256",
          "name": "offerId_",
          "type": "uint256"
        },
        {
          "internalType": "uint256",
          "name": "listingId_",
          "type": "uint256"
        }
      ],
      "name": "acceptOffer",
      "outputs": [],
      "stateMutability": "nonpayable",
      "type": "function"
    },
    {
      "inputs": [],
      "name": "readAllListings",
      "outputs": [
        {
          "components": [
            {
              "internalType": "uint256",
              "name": "listingId",
              "type": "uint256"
            },
            {
              "internalType": "contract IERC721Upgradeable",
              "name": "tokenAddress",
              "type": "address"
            },
            {
              "internalType": "uint256",
              "name": "tokenId",
              "type": "uint256"
            },
            {
              "internalType": "address",
              "name": "tokenOwner",
              "type": "address"
            },
            {
              "internalType": "uint256",
              "name": "transactionChargeBips",
              "type": "uint256"
            },
            {
              "internalType": "bool",
              "name": "isCompleted",
              "type": "bool"
            },
            {
              "internalType": "bool",
              "name": "isCancelled",
              "type": "bool"
            },
            {
              "internalType": "uint256",
              "name": "transactionCharge",
              "type": "uint256"
            }
          ],
          "internalType": "struct ISwapData.SwapListing[]",
          "name": "",
          "type": "tuple[]"
        }
      ],
      "stateMutability": "view",
      "type": "function"
    },
    {
      "inputs": [
        {
          "internalType": "uint256",
          "name": "start",
          "type": "uint256"
        },
        {
          "internalType": "uint256",
          "name": "end",
          "type": "uint256"
        }
      ],
      "name": "readListingsByIndex",
      "outputs": [
        {
          "components": [
            {
              "internalType": "uint256",
              "name": "listingId",
              "type": "uint256"
            },
            {
              "internalType": "contract IERC721Upgradeable",
              "name": "tokenAddress",
              "type": "address"
            },
            {
              "internalType": "uint256",
              "name": "tokenId",
              "type": "uint256"
            },
            {
              "internalType": "address",
              "name": "tokenOwner",
              "type": "address"
            },
            {
              "internalType": "uint256",
              "name": "transactionChargeBips",
              "type": "uint256"
            },
            {
              "internalType": "bool",
              "name": "isCompleted",
              "type": "bool"
            },
            {
              "internalType": "bool",
              "name": "isCancelled",
              "type": "bool"
            },
            {
              "internalType": "uint256",
              "name": "transactionCharge",
              "type": "uint256"
            }
          ],
          "internalType": "struct ISwapData.SwapListing[]",
          "name": "",
          "type": "tuple[]"
        }
      ],
      "stateMutability": "view",
      "type": "function"
    },
    {
      "inputs": [
        {
          "internalType": "uint256",
          "name": "id",
          "type": "uint256"
        }
      ],
      "name": "readListingById",
      "outputs": [
        {
          "components": [
            {
              "internalType": "uint256",
              "name": "listingId",
              "type": "uint256"
            },
            {
              "internalType": "contract IERC721Upgradeable",
              "name": "tokenAddress",
              "type": "address"
            },
            {
              "internalType": "uint256",
              "name": "tokenId",
              "type": "uint256"
            },
            {
              "internalType": "address",
              "name": "tokenOwner",
              "type": "address"
            },
            {
              "internalType": "uint256",
              "name": "transactionChargeBips",
              "type": "uint256"
            },
            {
              "internalType": "bool",
              "name": "isCompleted",
              "type": "bool"
            },
            {
              "internalType": "bool",
              "name": "isCancelled",
              "type": "bool"
            },
            {
              "internalType": "uint256",
              "name": "transactionCharge",
              "type": "uint256"
            }
          ],
          "internalType": "struct ISwapData.SwapListing",
          "name": "",
          "type": "tuple"
        }
      ],
      "stateMutability": "view",
      "type": "function"
    },
    {
      "inputs": [
        {
          "internalType": "uint256",
          "name": "id",
          "type": "uint256"
        }
      ],
      "name": "removeListingById",
      "outputs": [],
      "stateMutability": "nonpayable",
      "type": "function"
    },
    {
      "inputs": [],
      "name": "readAllOffers",
      "outputs": [
        {
          "components": [
            {
              "internalType": "uint256",
              "name": "offerId",
              "type": "uint256"
            },
            {
              "internalType": "uint256",
              "name": "listingId",
              "type": "uint256"
            },
            {
              "internalType": "contract IERC721Upgradeable",
              "name": "offerTokenAddress",
              "type": "address"
            },
            {
              "internalType": "uint256",
              "name": "offerTokenId",
              "type": "uint256"
            },
            {
              "internalType": "address",
              "name": "offerTokenOwner",
              "type": "address"
            },
            {
              "internalType": "contract IERC721Upgradeable",
              "name": "listingTokenAddress",
              "type": "address"
            },
            {
              "internalType": "uint256",
              "name": "listingTokenId",
              "type": "uint256"
            },
            {
              "internalType": "address",
              "name": "listingTokenOwner",
              "type": "address"
            },
            {
              "internalType": "uint256",
              "name": "transactionChargeBips",
              "type": "uint256"
            },
            {
              "internalType": "bool",
              "name": "isCompleted",
              "type": "bool"
            },
            {
              "internalType": "bool",
              "name": "isCancelled",
              "type": "bool"
            },
            {
              "internalType": "bool",
              "name": "isDeclined",
              "type": "bool"
            },
            {
              "internalType": "uint256",
              "name": "transactionCharge",
              "type": "uint256"
            }
          ],
          "internalType": "struct ISwapData.SwapOffer[]",
          "name": "",
          "type": "tuple[]"
        }
      ],
      "stateMutability": "view",
      "type": "function"
    },
    {
      "inputs": [
        {
          "internalType": "uint256",
          "name": "id",
          "type": "uint256"
        }
      ],
      "name": "readOfferById",
      "outputs": [
        {
          "components": [
            {
              "internalType": "uint256",
              "name": "offerId",
              "type": "uint256"
            },
            {
              "internalType": "uint256",
              "name": "listingId",
              "type": "uint256"
            },
            {
              "internalType": "contract IERC721Upgradeable",
              "name": "offerTokenAddress",
              "type": "address"
            },
            {
              "internalType": "uint256",
              "name": "offerTokenId",
              "type": "uint256"
            },
            {
              "internalType": "address",
              "name": "offerTokenOwner",
              "type": "address"
            },
            {
              "internalType": "contract IERC721Upgradeable",
              "name": "listingTokenAddress",
              "type": "address"
            },
            {
              "internalType": "uint256",
              "name": "listingTokenId",
              "type": "uint256"
            },
            {
              "internalType": "address",
              "name": "listingTokenOwner",
              "type": "address"
            },
            {
              "internalType": "uint256",
              "name": "transactionChargeBips",
              "type": "uint256"
            },
            {
              "internalType": "bool",
              "name": "isCompleted",
              "type": "bool"
            },
            {
              "internalType": "bool",
              "name": "isCancelled",
              "type": "bool"
            },
            {
              "internalType": "bool",
              "name": "isDeclined",
              "type": "bool"
            },
            {
              "internalType": "uint256",
              "name": "transactionCharge",
              "type": "uint256"
            }
          ],
          "internalType": "struct ISwapData.SwapOffer",
          "name": "",
          "type": "tuple"
        }
      ],
      "stateMutability": "view",
      "type": "function"
    },
    {
      "inputs": [
        {
          "internalType": "uint256",
          "name": "id",
          "type": "uint256"
        }
      ],
      "name": "removeOfferById",
      "outputs": [],
      "stateMutability": "nonpayable",
      "type": "function"
    },
    {
      "inputs": [
        {
          "internalType": "uint256",
          "name": "start",
          "type": "uint256"
        },
        {
          "internalType": "uint256",
          "name": "end",
          "type": "uint256"
        }
      ],
      "name": "readOffersByIndex",
      "outputs": [
        {
          "components": [
            {
              "internalType": "uint256",
              "name": "offerId",
              "type": "uint256"
            },
            {
              "internalType": "uint256",
              "name": "listingId",
              "type": "uint256"
            },
            {
              "internalType": "contract IERC721Upgradeable",
              "name": "offerTokenAddress",
              "type": "address"
            },
            {
              "internalType": "uint256",
              "name": "offerTokenId",
              "type": "uint256"
            },
            {
              "internalType": "address",
              "name": "offerTokenOwner",
              "type": "address"
            },
            {
              "internalType": "contract IERC721Upgradeable",
              "name": "listingTokenAddress",
              "type": "address"
            },
            {
              "internalType": "uint256",
              "name": "listingTokenId",
              "type": "uint256"
            },
            {
              "internalType": "address",
              "name": "listingTokenOwner",
              "type": "address"
            },
            {
              "internalType": "uint256",
              "name": "transactionChargeBips",
              "type": "uint256"
            },
            {
              "internalType": "bool",
              "name": "isCompleted",
              "type": "bool"
            },
            {
              "internalType": "bool",
              "name": "isCancelled",
              "type": "bool"
            },
            {
              "internalType": "bool",
              "name": "isDeclined",
              "type": "bool"
            },
            {
              "internalType": "uint256",
              "name": "transactionCharge",
              "type": "uint256"
            }
          ],
          "internalType": "struct ISwapData.SwapOffer[]",
          "name": "",
          "type": "tuple[]"
        }
      ],
      "stateMutability": "view",
      "type": "function"
    },
    {
      "inputs": [],
      "name": "readAllTrades",
      "outputs": [
        {
          "components": [
            {
              "internalType": "uint256",
              "name": "tradeId",
              "type": "uint256"
            },
            {
              "internalType": "uint256",
              "name": "listingId",
              "type": "uint256"
            },
            {
              "internalType": "uint256",
              "name": "offerId",
              "type": "uint256"
            }
          ],
          "internalType": "struct ISwapData.Trade[]",
          "name": "",
          "type": "tuple[]"
        }
      ],
      "stateMutability": "view",
      "type": "function"
    },
    {
      "inputs": [
        {
          "internalType": "uint256",
          "name": "start",
          "type": "uint256"
        },
        {
          "internalType": "uint256",
          "name": "end",
          "type": "uint256"
        }
      ],
      "name": "readTradesByIndex",
      "outputs": [
        {
          "components": [
            {
              "internalType": "uint256",
              "name": "tradeId",
              "type": "uint256"
            },
            {
              "internalType": "uint256",
              "name": "listingId",
              "type": "uint256"
            },
            {
              "internalType": "uint256",
              "name": "offerId",
              "type": "uint256"
            }
          ],
          "internalType": "struct ISwapData.Trade[]",
          "name": "",
          "type": "tuple[]"
        }
      ],
      "stateMutability": "view",
      "type": "function"
    },
    {
      "inputs": [
        {
          "internalType": "uint256",
          "name": "id",
          "type": "uint256"
        }
      ],
      "name": "readTradeById",
      "outputs": [
        {
          "components": [
            {
              "internalType": "uint256",
              "name": "tradeId",
              "type": "uint256"
            },
            {
              "internalType": "uint256",
              "name": "listingId",
              "type": "uint256"
            },
            {
              "internalType": "uint256",
              "name": "offerId",
              "type": "uint256"
            }
          ],
          "internalType": "struct ISwapData.Trade",
          "name": "",
          "type": "tuple"
        }
      ],
      "stateMutability": "view",
      "type": "function"
    },
    {
      "inputs": [
        {
          "internalType": "uint256",
          "name": "newTxCharge",
          "type": "uint256"
        }
      ],
      "name": "setTxCharge",
      "outputs": [],
      "stateMutability": "nonpayable",
      "type": "function"
    },
    {
      "inputs": [
        {
          "internalType": "address",
          "name": "newTreasury",
          "type": "address"
        }
      ],
      "name": "setTreasuryWallet",
      "outputs": [],
      "stateMutability": "nonpayable",
      "type": "function"
    },
    {
      "inputs": [],
      "name": "getTxCharge",
      "outputs": [
        {
          "internalType": "uint256",
          "name": "",
          "type": "uint256"
        }
      ],
      "stateMutability": "view",
      "type": "function"
    }
  ],
  "bytecode": "0x608060405234801561001057600080fd5b50613022806100206000396000f3fe60806040526004361061019c5760003560e01c806391d14854116100ec578063cb27da731161008a578063d7aa10fc11610064578063d7aa10fc1461049c578063eadece7d146104c9578063f022e25c146104e9578063f09a40161461051657600080fd5b8063cb27da731461043c578063cf2815351461045c578063d547741f1461047c57600080fd5b8063a8602fea116100c6578063a8602fea146103ad578063b81603ba146103cd578063bf34ebc8146103fa578063c2c83f9a1461041c57600080fd5b806391d14854146103585780639b59d95b14610378578063a217fddf1461039857600080fd5b806336568abe1161015957806367722a221161013357806367722a22146102f85780636c5a909e1461030d57806381257bd51461032257806381483a7e1461034257600080fd5b806336568abe146102985780634c8ed8ed146102b857806353e86fee146102d857600080fd5b806301ffc9a7146101a157806306f91841146101d6578063248a9ca31461020357806327425759146102415780632f2ff15d1461025657806331ebe3f914610276575b600080fd5b3480156101ad57600080fd5b506101c16101bc3660046125eb565b610536565b60405190151581526020015b60405180910390f35b3480156101e257600080fd5b506101f66101f1366004612615565b61056d565b6040516101cd9190612703565b34801561020f57600080fd5b5061023361021e366004612752565b60009081526065602052604090206001015490565b6040519081526020016101cd565b61025461024f366004612780565b6105ed565b005b34801561026257600080fd5b50610254610271366004612780565b6108fc565b34801561028257600080fd5b5061028b610926565b6040516101cd91906127b0565b3480156102a457600080fd5b506102546102b3366004612780565b61099d565b3480156102c457600080fd5b506102546102d3366004612752565b610a1b565b3480156102e457600080fd5b5061028b6102f3366004612615565b610a63565b34801561030457600080fd5b506101f6610adc565b34801561031957600080fd5b50609a54610233565b34801561032e57600080fd5b5061025461033d366004612615565b610b4e565b34801561034e57600080fd5b50610233609a5481565b34801561036457600080fd5b506101c1610373366004612780565b6112d3565b34801561038457600080fd5b50610254610393366004612806565b6112fe565b3480156103a457600080fd5b50610233600081565b3480156103b957600080fd5b506102546103c836600461283e565b611737565b3480156103d957600080fd5b506103ed6103e8366004612752565b611790565b6040516101cd91906128bb565b34801561040657600080fd5b5061040f611806565b6040516101cd91906128ca565b34801561042857600080fd5b50610254610437366004612752565b611878565b34801561044857600080fd5b50610254610457366004612615565b611a07565b34801561046857600080fd5b50610254610477366004612752565b611c91565b34801561048857600080fd5b50610254610497366004612780565b611e14565b3480156104a857600080fd5b506104bc6104b7366004612752565b611e39565b6040516101cd919061290d565b3480156104d557600080fd5b5061040f6104e4366004612615565b611eaf565b3480156104f557600080fd5b50610509610504366004612752565b611f28565b6040516101cd919061291c565b34801561052257600080fd5b5061025461053136600461293d565b611fb9565b60006001600160e01b03198216637965db0b60e01b148061056757506301ffc9a760e01b6001600160e01b03198316145b92915050565b6098546040516306f9184160e01b815260048101849052602481018390526060916001600160a01b0316906306f9184190604401600060405180830381865afa1580156105be573d6000803e3d6000fd5b505050506040513d6000823e601f3d908101601f191682016040526105e69190810190612af7565b9392505050565b60405163020604bf60e21b81526004810183905281906000906001600160a01b0383169063081812fc90602401602060405180830381865afa158015610637573d6000803e3d6000fd5b505050506040513d601f19601f8201168201806040525081019061065b9190612b97565b9050609a5434146106bf5760405162461bcd60e51b8152602060048201526024808201527f496e73756666696369656e7420746675656c2073656e7420666f7220747843686044820152636172676560e01b60648201526084015b60405180910390fd5b6001600160a01b03811630146106e75760405162461bcd60e51b81526004016106b690612bb4565b336040516331a9108f60e11b8152600481018690526001600160a01b0391821691841690636352211e90602401602060405180830381865afa158015610731573d6000803e3d6000fd5b505050506040513d601f19601f820116820180604052508101906107559190612b97565b6001600160a01b0316146107ab5760405162461bcd60e51b815260206004820181905260248201527f596f7520617265206e6f7420746865206f776e6572206f6620746865204e465460448201526064016106b6565b6107b3612524565b60008082526001600160a01b0384811660208401526040808401889052336060850152611388608085015260a0840183905260c08401839052609a5460e0850152609854905163366505c160e01b815291169063366505c19061081a9085906004016128bb565b6020604051808303816000875af1158015610839573d6000803e3d6000fd5b505050506040513d601f19601f8201168201806040525081019061085d9190612c0a565b9050806108ac5760405162461bcd60e51b815260206004820152601960248201527f4c697374696e672063616e6e6f7420626520637265617465640000000000000060448201526064016106b6565b604080516001600160a01b038616815233602082015280820188905290517fde6257319cdab40152d4ae8968e5f8e8daf0057f72d2cf07d10341aa52db729c9181900360600190a1505050505050565b60008281526065602052604090206001015461091781612113565b6109218383612120565b505050565b609854604080516331ebe3f960e01b815290516060926001600160a01b0316916331ebe3f99160048083019260009291908290030181865afa158015610970573d6000803e3d6000fd5b505050506040513d6000823e601f3d908101601f191682016040526109989190810190612c81565b905090565b6001600160a01b0381163314610a0d5760405162461bcd60e51b815260206004820152602f60248201527f416363657373436f6e74726f6c3a2063616e206f6e6c792072656e6f756e636560448201526e103937b632b9903337b91039b2b63360891b60648201526084016106b6565b610a1782826121a6565b5050565b6000610a2681612113565b609a8290556040518281527f4057f491289141fe7a5384b41ce07001d561a33d28fb8fcc795e33f147df1b5d906020015b60405180910390a15050565b6098546040516329f437f760e11b815260048101849052602481018390526060916001600160a01b0316906353e86fee90604401600060405180830381865afa158015610ab4573d6000803e3d6000fd5b505050506040513d6000823e601f3d908101601f191682016040526105e69190810190612c81565b609854604080516333b9151160e11b815290516060926001600160a01b0316916367722a229160048083019260009291908290030181865afa158015610b26573d6000803e3d6000fd5b505050506040513d6000823e601f3d908101601f191682016040526109989190810190612af7565b6098546040516335ea843f60e21b8152600481018490526000916001600160a01b03169063d7aa10fc906024016101a060405180830381865afa158015610b99573d6000803e3d6000fd5b505050506040513d601f19601f82011682018060405250810190610bbd9190612d0f565b609854604051635c0b01dd60e11b8152600481018590529192506000916001600160a01b039091169063b81603ba9060240161010060405180830381865afa158015610c0d573d6000803e3d6000fd5b505050506040513d601f19601f82011682018060405250810190610c319190612ddd565b60408084015160a08501519183015160c0860151939450909214610c8b5760405162461bcd60e51b8152602060048201526011602482015270496e636f7272656374206c697374696e6760781b60448201526064016106b6565b602083015160408085015190516331a9108f60e11b8152600481019190915233906001600160a01b03831690636352211e90602401602060405180830381865afa158015610cdd573d6000803e3d6000fd5b505050506040513d601f19601f82011682018060405250810190610d019190612b97565b6001600160a01b031614610d655760405162461bcd60e51b815260206004820152602560248201527f596f7520617265206e6f7420746865206f776e6572206f662074686973206c696044820152647374696e6760d81b60648201526084016106b6565b83604001518560c0015114610dc85760405162461bcd60e51b815260206004820152602360248201527f496e65636f727265637420617474656d707420746f20616363657074206f666660448201526232b91760e91b60648201526084016106b6565b8360a00151158015610ddd5750846101200151155b610e1c5760405162461bcd60e51b815260206004820152601060248201526f24b73b30b634b2103932b8bab2b9ba1760811b60448201526064016106b6565b8360c00151158015610e315750846101400151155b610e705760405162461bcd60e51b815260206004820152601060248201526f24b73b30b634b2102932b8bab2b9ba1760811b60448201526064016106b6565b84610160015115610eb55760405162461bcd60e51b815260206004820152600f60248201526e125b9d985b1a590814995c5d595cdd608a1b60448201526064016106b6565b606085015160405163020604bf60e21b81526000916001600160a01b0386169163081812fc91610eeb9160040190815260200190565b602060405180830381865afa158015610f08573d6000803e3d6000fd5b505050506040513d601f19601f82011682018060405250810190610f2c9190612b97565b90506000836001600160a01b031663081812fc8860c001516040518263ffffffff1660e01b8152600401610f6291815260200190565b602060405180830381865afa158015610f7f573d6000803e3d6000fd5b505050506040513d601f19601f82011682018060405250810190610fa39190612b97565b90506001600160a01b03821630148015610fc557506001600160a01b03811630145b6110005760405162461bcd60e51b815260206004820152600c60248201526b1b9bdd08185c1c1c9bdd995960a21b60448201526064016106b6565b608087015160e088015160608901516040516323b872dd60e01b81526001600160a01b03938416600482015291831660248301526044820152908616906323b872dd90606401600060405180830381600087803b15801561106057600080fd5b505af1158015611074573d6000803e3d6000fd5b5050505060e0870151608088015160c08901516040516323b872dd60e01b81526001600160a01b03938416600482015291831660248301526044820152908516906323b872dd90606401600060405180830381600087803b1580156110d857600080fd5b505af11580156110ec573d6000803e3d6000fd5b5050609b5460e089015161110d93506001600160a01b03909116915061220d565b600160a0870181905261012088015260985460405163636651bb60e01b81526001600160a01b039091169063636651bb9061114c9089906004016128bb565b600060405180830381600087803b15801561116657600080fd5b505af115801561117a573d6000803e3d6000fd5b50506098546040516348b3df3160e11b81526001600160a01b039091169250639167be6291506111ae908a9060040161290d565b600060405180830381600087803b1580156111c857600080fd5b505af11580156111dc573d6000803e3d6000fd5b5050505061120460405180606001604052806000815260200160008152602001600081525090565b86516020820152875160408083019190915260985490516367fbe48760e11b81526001600160a01b039091169063cff7c90e9061124590849060040161291c565b600060405180830381600087803b15801561125f57600080fd5b505af1158015611273573d6000803e3d6000fd5b505050507f0e04e37ceddc00919dd8bac84e926e7cb4c443a5647fa684ddaadd411d81a2a261129f3390565b604080516001600160a01b039092168252602082018d905281018b905260600160405180910390a150505050505050505050565b60009182526065602090815260408084206001600160a01b0393909316845291905290205460ff1690565b60405163020604bf60e21b81526004810184905282906000906001600160a01b0383169063081812fc90602401602060405180830381865afa158015611348573d6000803e3d6000fd5b505050506040513d601f19601f8201168201806040525081019061136c9190612b97565b90506001600160a01b03811630146113965760405162461bcd60e51b81526004016106b690612bb4565b336040516331a9108f60e11b8152600481018790526001600160a01b0391821691841690636352211e90602401602060405180830381865afa1580156113e0573d6000803e3d6000fd5b505050506040513d601f19601f820116820180604052508101906114049190612b97565b6001600160a01b03161461145a5760405162461bcd60e51b815260206004820181905260248201527f596f7520617265206e6f7420746865206f776e6572206f6620746865204e465460448201526064016106b6565b609854604051635c0b01dd60e11b8152600481018590526000916001600160a01b03169063b81603ba9060240161010060405180830381865afa1580156114a5573d6000803e3d6000fd5b505050506040513d601f19601f820116820180604052508101906114c99190612ddd565b905060008160200151905081606001516001600160a01b0316816001600160a01b0316636352211e84604001516040518263ffffffff1660e01b815260040161151491815260200190565b602060405180830381865afa158015611531573d6000803e3d6000fd5b505050506040513d601f19601f820116820180604052508101906115559190612b97565b6001600160a01b03161461159d5760405162461bcd60e51b815260206004820152600f60248201526e131a5cdd1a5b99c8115e1c1a5c9959608a1b60448201526064016106b6565b6115a561257f565b6001600160a01b03851660408201526020810186905260608101889052336001600160a01b0390811660808301526020840151811660a083015260408085015160c08401526060850151821660e08401526113886101008401526000610120840181905261014084018190526101608401819052609a546101808501526098549151635541596b60e01b815290929190911690635541596b9061164c90859060040161290d565b6020604051808303816000875af115801561166b573d6000803e3d6000fd5b505050506040513d601f19601f8201168201806040525081019061168f9190612c0a565b9050806116de5760405162461bcd60e51b815260206004820152601760248201527f4f666665722063616e6f7420626520637265617465642e00000000000000000060448201526064016106b6565b604080518881523360208201526001600160a01b03881681830152606081018b905290517f1784ac518c432a640a8f7667083afc05a0fad0da02bf0c8e576e70ece4c79f4d9181900360800190a1505050505050505050565b600061174281612113565b609b80546001600160a01b0319166001600160a01b0384169081179091556040519081527f2551960305e8f85b09658bb3075878e3e3cef37a5f7b5d43261f5e6f36b3d6a490602001610a57565b611798612524565b609854604051635c0b01dd60e11b8152600481018490526001600160a01b039091169063b81603ba9060240161010060405180830381865afa1580156117e2573d6000803e3d6000fd5b505050506040513d601f19601f820116820180604052508101906105679190612ddd565b609854604080516317e69d7960e31b815290516060926001600160a01b03169163bf34ebc89160048083019260009291908290030181865afa158015611850573d6000803e3d6000fd5b505050506040513d6000823e601f3d908101601f191682016040526109989190810190612dfa565b6098546040516335ea843f60e21b8152600481018390526000916001600160a01b03169063d7aa10fc906024016101a060405180830381865afa1580156118c3573d6000803e3d6000fd5b505050506040513d601f19601f820116820180604052508101906118e79190612d0f565b905080608001516001600160a01b03166118fe3390565b6001600160a01b0316146119635760405162461bcd60e51b815260206004820152602660248201527f4f6e6c79206f666665722063726561746f72732063616e2072656d6f7665206f604482015265333332b9399760d11b60648201526084016106b6565b6098546040516361641fcd60e11b8152600481018490526001600160a01b039091169063c2c83f9a90602401600060405180830381600087803b1580156119a957600080fd5b505af11580156119bd573d6000803e3d6000fd5b505050507fe865ffa5b7c4dd36ade4ec9c25454b2ff28c1e1ea69e14bc7769d9f2484d8ba46119e93390565b604080516001600160a01b0390921682526020820185905201610a57565b6098546040516335ea843f60e21b8152600481018490526000916001600160a01b03169063d7aa10fc906024016101a060405180830381865afa158015611a52573d6000803e3d6000fd5b505050506040513d601f19601f82011682018060405250810190611a769190612d0f565b609854604051635c0b01dd60e11b8152600481018590529192506000916001600160a01b039091169063b81603ba9060240161010060405180830381865afa158015611ac6573d6000803e3d6000fd5b505050506040513d601f19601f82011682018060405250810190611aea9190612ddd565b905080604001518260c0015114611b4f5760405162461bcd60e51b8152602060048201526024808201527f496e65636f727265637420617474656d707420746f206465636c696e65206f666044820152633332b91760e11b60648201526084016106b6565b60e08201516001600160a01b03163314611bd15760405162461bcd60e51b815260206004820152603a60248201527f596f7520617265206e6f7420617574686f72697a656420746f206465636c696e60448201527f65206f666665727320666f722074686973206c697374696e672e00000000000060648201526084016106b6565b60016101608301526098546040516348b3df3160e11b81526001600160a01b0390911690639167be6290611c0990859060040161290d565b600060405180830381600087803b158015611c2357600080fd5b505af1158015611c37573d6000803e3d6000fd5b505050507f461932dce2732af66de25dd7ad73265dd9dc87c073093f99d03637f1ef3d07a3611c633390565b604080516001600160a01b03909216825260208201879052810185905260600160405180910390a150505050565b609854604051635c0b01dd60e11b8152600481018390526000916001600160a01b03169063b81603ba9060240161010060405180830381865afa158015611cdc573d6000803e3d6000fd5b505050506040513d601f19601f82011682018060405250810190611d009190612ddd565b905080606001516001600160a01b0316611d173390565b6001600160a01b031614611d805760405162461bcd60e51b815260206004820152602a60248201527f4f6e6c79206c697374696e672063726561746f72732063616e2072656d6f7665604482015269103634b9ba34b733b99760b11b60648201526084016106b6565b611d8e338260e0015161220d565b60985460405163cf28153560e01b8152600481018490526001600160a01b039091169063cf28153590602401600060405180830381600087803b158015611dd457600080fd5b505af1158015611de8573d6000803e3d6000fd5b505050507f143057f4f01bf6591aecc4d046a991c5efed59b28eeb9af09c6267e8dd70de536119e93390565b600082815260656020526040902060010154611e2f81612113565b61092183836121a6565b611e4161257f565b6098546040516335ea843f60e21b8152600481018490526001600160a01b039091169063d7aa10fc906024016101a060405180830381865afa158015611e8b573d6000803e3d6000fd5b505050506040513d601f19601f820116820180604052508101906105679190612d0f565b60985460405163eadece7d60e01b815260048101849052602481018390526060916001600160a01b03169063eadece7d90604401600060405180830381865afa158015611f00573d6000803e3d6000fd5b505050506040513d6000823e601f3d908101601f191682016040526105e69190810190612dfa565b611f4c60405180606001604052806000815260200160008152602001600081525090565b609854604051633c08b89760e21b8152600481018490526001600160a01b039091169063f022e25c90602401606060405180830381865afa158015611f95573d6000803e3d6000fd5b505050506040513d601f19601f820116820180604052508101906105679190612e97565b600054610100900460ff1615808015611fd95750600054600160ff909116105b80611ff35750303b158015611ff3575060005460ff166001145b6120565760405162461bcd60e51b815260206004820152602e60248201527f496e697469616c697a61626c653a20636f6e747261637420697320616c72656160448201526d191e481a5b9a5d1a585b1a5e995960921b60648201526084016106b6565b6000805460ff191660011790558015612079576000805461ff0019166101001790555b6120816122b0565b6120896122b0565b612094600084612120565b609880546001600160a01b0384166001600160a01b031991821617909155678ac7230489e80000609955609b8054909116331790558015610921576000805461ff0019169055604051600181527f7f26b83ff96e1f2b6a682f133852f6798a09c465da95921460cefb38474024989060200160405180910390a1505050565b61211d813361231d565b50565b61212a82826112d3565b610a175760008281526065602090815260408083206001600160a01b03851684529091529020805460ff191660011790556121623390565b6001600160a01b0316816001600160a01b0316837f2f8788117e7eff1d82e926ec794901d17c78024a50270940304540a733656f0d60405160405180910390a45050565b6121b082826112d3565b15610a175760008281526065602090815260408083206001600160a01b0385168085529252808320805460ff1916905551339285917ff6391f5c32d9c69d2a47ea670b442974b53935d1edc7fd64eb21e047a839171b9190a45050565b6000826001600160a01b03168260405160006040518083038185875af1925050503d806000811461225a576040519150601f19603f3d011682016040523d82523d6000602084013e61225f565b606091505b50509050806109215760405162461bcd60e51b815260206004820152601f60248201527f5472616e7366657248656c7065723a205452414e534645525f4641494c45440060448201526064016106b6565b600054610100900460ff1661231b5760405162461bcd60e51b815260206004820152602b60248201527f496e697469616c697a61626c653a20636f6e7472616374206973206e6f74206960448201526a6e697469616c697a696e6760a81b60648201526084016106b6565b565b61232782826112d3565b610a175761233481612376565b61233f836020612388565b604051602001612350929190612ed7565b60408051601f198184030181529082905262461bcd60e51b82526106b691600401612f4c565b60606105676001600160a01b03831660145b60606000612397836002612f95565b6123a2906002612fac565b67ffffffffffffffff8111156123ba576123ba61296b565b6040519080825280601f01601f1916602001820160405280156123e4576020820181803683370190505b509050600360fc1b816000815181106123ff576123ff612fbf565b60200101906001600160f81b031916908160001a905350600f60fb1b8160018151811061242e5761242e612fbf565b60200101906001600160f81b031916908160001a9053506000612452846002612f95565b61245d906001612fac565b90505b60018111156124d5576f181899199a1a9b1b9c1cb0b131b232b360811b85600f166010811061249157612491612fbf565b1a60f81b8282815181106124a7576124a7612fbf565b60200101906001600160f81b031916908160001a90535060049490941c936124ce81612fd5565b9050612460565b5083156105e65760405162461bcd60e51b815260206004820181905260248201527f537472696e67733a20686578206c656e67746820696e73756666696369656e7460448201526064016106b6565b6040518061010001604052806000815260200160006001600160a01b031681526020016000815260200160006001600160a01b0316815260200160008152602001600015158152602001600015158152602001600081525090565b604080516101a081018252600080825260208201819052918101829052606081018290526080810182905260a0810182905260c0810182905260e08101829052610100810182905261012081018290526101408101829052610160810182905261018081019190915290565b6000602082840312156125fd57600080fd5b81356001600160e01b0319811681146105e657600080fd5b6000806040838503121561262857600080fd5b50508035926020909101359150565b8051825260208101516020830152604081015161265f60408401826001600160a01b03169052565b5060608101516060830152608081015161268460808401826001600160a01b03169052565b5060a081015161269f60a08401826001600160a01b03169052565b5060c081015160c083015260e08101516126c460e08401826001600160a01b03169052565b50610100818101519083015261012080820151151590830152610140808201511515908301526101608082015115159083015261018090810151910152565b6020808252825182820181905260009190848201906040850190845b8181101561274657612732838551612637565b928401926101a0929092019160010161271f565b50909695505050505050565b60006020828403121561276457600080fd5b5035919050565b6001600160a01b038116811461211d57600080fd5b6000806040838503121561279357600080fd5b8235915060208301356127a58161276b565b809150509250929050565b6020808252825182820181905260009190848201906040850190845b81811015612746576127f38385518051825260208082015190830152604090810151910152565b92840192606092909201916001016127cc565b60008060006060848603121561281b57600080fd5b83359250602084013561282d8161276b565b929592945050506040919091013590565b60006020828403121561285057600080fd5b81356105e68161276b565b80518252602081015160018060a01b0380821660208501526040830151604085015280606084015116606085015250506080810151608083015260a0810151151560a083015260c0810151151560c083015260e081015160e08301525050565b6101008101610567828461285b565b6020808252825182820181905260009190848201906040850190845b81811015612746576128f983855161285b565b9284019261010092909201916001016128e6565b6101a081016105678284612637565b81518152602080830151908201526040808301519082015260608101610567565b6000806040838503121561295057600080fd5b823561295b8161276b565b915060208301356127a58161276b565b634e487b7160e01b600052604160045260246000fd5b6040516101a0810167ffffffffffffffff811182821017156129a5576129a561296b565b60405290565b604051601f8201601f1916810167ffffffffffffffff811182821017156129d4576129d461296b565b604052919050565b600067ffffffffffffffff8211156129f6576129f661296b565b5060051b60200190565b8051612a0b8161276b565b919050565b80518015158114612a0b57600080fd5b60006101a08284031215612a3357600080fd5b612a3b612981565b90508151815260208201516020820152612a5760408301612a00565b604082015260608201516060820152612a7260808301612a00565b6080820152612a8360a08301612a00565b60a082015260c082015160c0820152612a9e60e08301612a00565b60e08201526101008281015190820152610120612abc818401612a10565b90820152610140612ace838201612a10565b90820152610160612ae0838201612a10565b818301525061018080830151818301525092915050565b60006020808385031215612b0a57600080fd5b825167ffffffffffffffff811115612b2157600080fd5b8301601f81018513612b3257600080fd5b8051612b45612b40826129dc565b6129ab565b8181526101a09182028301840191848201919088841115612b6557600080fd5b938501935b83851015612b8b57612b7c8986612a20565b83529384019391850191612b6a565b50979650505050505050565b600060208284031215612ba957600080fd5b81516105e68161276b565b60208082526036908201527f417070726f76616c20697320726571756972656420666f72205377617020436f604082015275373a3930b1ba103132b337b932903634b9ba34b7339760511b606082015260800190565b600060208284031215612c1c57600080fd5b6105e682612a10565b600060608284031215612c3757600080fd5b6040516060810181811067ffffffffffffffff82111715612c5a57612c5a61296b565b80604052508091508251815260208301516020820152604083015160408201525092915050565b60006020808385031215612c9457600080fd5b825167ffffffffffffffff811115612cab57600080fd5b8301601f81018513612cbc57600080fd5b8051612cca612b40826129dc565b81815260609182028301840191848201919088841115612ce957600080fd5b938501935b83851015612b8b57612d008986612c25565b83529384019391850191612cee565b60006101a08284031215612d2257600080fd5b6105e68383612a20565b6000610100808385031215612d4057600080fd5b6040519081019067ffffffffffffffff82118183101715612d6357612d6361296b565b816040528092508351815260208401519150612d7e8261276b565b81602082015260408401516040820152612d9a60608501612a00565b606082015260808401516080820152612db560a08501612a10565b60a0820152612dc660c08501612a10565b60c082015260e084015160e0820152505092915050565b60006101008284031215612df057600080fd5b6105e68383612d2c565b60006020808385031215612e0d57600080fd5b825167ffffffffffffffff811115612e2457600080fd5b8301601f81018513612e3557600080fd5b8051612e43612b40826129dc565b81815260089190911b82018301908381019087831115612e6257600080fd5b928401925b82841015612e8c57612e798885612d2c565b8252848201915061010084019350612e67565b979650505050505050565b600060608284031215612ea957600080fd5b6105e68383612c25565b60005b83811015612ece578181015183820152602001612eb6565b50506000910152565b7f416363657373436f6e74726f6c3a206163636f756e7420000000000000000000815260008351612f0f816017850160208801612eb3565b7001034b99036b4b9b9b4b733903937b6329607d1b6017918401918201528351612f40816028840160208801612eb3565b01602801949350505050565b6020815260008251806020840152612f6b816040850160208701612eb3565b601f01601f19169190910160400192915050565b634e487b7160e01b600052601160045260246000fd5b808202811582820484141761056757610567612f7f565b8082018082111561056757610567612f7f565b634e487b7160e01b600052603260045260246000fd5b600081612fe457612fe4612f7f565b50600019019056fea2646970667358221220320384d91f1ec4d7b626d57c161f79b96753891730fa63fd123cb6fbb04669a364736f6c63430008110033",
  "immutableReferences": {},
  "source": "//SPDX-License-Identifier: MIT\npragma solidity 0.8.17;\n\nimport \"./interfaces/ISwapData.sol\";\nimport \"@openzeppelin/contracts-upgradeable/token/ERC20/IERC20Upgradeable.sol\";\nimport \"@openzeppelin/contracts-upgradeable/access/AccessControlUpgradeable.sol\";\nimport \"@openzeppelin/contracts-upgradeable/proxy/utils/Initializable.sol\";\n\ncontract SwapNFTUpgradeable is\n    Initializable,\n    ContextUpgradeable,\n    AccessControlUpgradeable\n{\n    IERC20Upgradeable private _feeToken;\n    ISwapData private dataContract;\n\n    uint256 private totalBips;\n    uint256 public txCharge;\n\n    event SwapListingCreated(\n        address collectionAddress,\n        address createdBy,\n        uint256 tokenId\n    );\n    event SwapOfferCreated(\n        uint256 listingId,\n        address from,\n        address offerCollection,\n        uint256 tokenId\n    );\n\n    event SwapOfferDeclied(\n        address declinedBy,\n        uint256 offerId,\n        uint256 listingId\n    );\n    event SwapOfferAccepted(\n        address acceptedBy,\n        uint256 offerId,\n        uint256 listingId\n    );\n    event SwapOfferWithdraw(address owner, uint256 offerId);\n    event SwapListingWithdraw(address owner, uint256 listingId);\n    event TxChargeChanged(uint256 newTxCharge);\n    event TreasuryWalletChanged(address newTreasuryWallet);\n\n    address treasury;\n\n    function init(address admin_, address dataContract_) public initializer {\n        __Context_init();\n        __AccessControl_init();\n        _grantRole(DEFAULT_ADMIN_ROLE, admin_);\n        dataContract = ISwapData(dataContract_);\n        totalBips = 10000;\n        totalBips = 10 * 10 ** 18;\n        treasury = _msgSender();\n    }\n\n    function createListing(\n        uint256 tokenId_,\n        address nftContract_\n    ) external payable {\n        IERC721Upgradeable nftContract = IERC721Upgradeable(nftContract_);\n        address operator = nftContract.getApproved(tokenId_);\n        require(msg.value == txCharge, \"Insufficient tfuel sent for txCharge\");\n        require(\n            operator == address(this),\n            \"Approval is required for Swap Contract before listing.\"\n        );\n        require(\n            nftContract.ownerOf(tokenId_) == _msgSender(),\n            \"You are not the owner of the NFT\"\n        );\n        ISwapData.SwapListing memory listing;\n        listing.listingId = 0;\n        listing.tokenAddress = nftContract;\n        listing.tokenId = tokenId_;\n        listing.tokenOwner = _msgSender();\n        listing.transactionChargeBips = 5000;\n        listing.isCompleted = false;\n        listing.isCancelled = false;\n        listing.transactionCharge = txCharge;\n        bool isListingCreated = dataContract.addListing(listing);\n        require(isListingCreated, \"Listing cannot be created\");\n        emit SwapListingCreated(address(nftContract), _msgSender(), tokenId_);\n    }\n\n    function createOffer(\n        uint256 tokenId_,\n        address nftContract_,\n        uint256 listingId_\n    ) external {\n        IERC721Upgradeable nftContract = IERC721Upgradeable(nftContract_);\n        address operator = nftContract.getApproved(tokenId_);\n        require(\n            operator == address(this),\n            \"Approval is required for Swap Contract before listing.\"\n        );\n        require(\n            nftContract.ownerOf(tokenId_) == _msgSender(),\n            \"You are not the owner of the NFT\"\n        );\n        ISwapData.SwapListing memory listing = dataContract.readListingById(\n            listingId_\n        );\n        IERC721Upgradeable listingNftContract = IERC721Upgradeable(\n            listing.tokenAddress\n        );\n        require(\n            listingNftContract.ownerOf(listing.tokenId) == listing.tokenOwner,\n            \"Listing Expired\"\n        );\n        ISwapData.SwapOffer memory offer;\n        offer.offerTokenAddress = nftContract;\n        offer.listingId = listingId_;\n        offer.offerTokenId = tokenId_;\n        offer.offerTokenOwner = _msgSender();\n        offer.listingTokenAddress = listing.tokenAddress;\n        offer.listingTokenId = listing.tokenId;\n        offer.listingTokenOwner = listing.tokenOwner;\n        offer.transactionChargeBips = 5000;\n        offer.isCompleted = false;\n        offer.isCancelled = false;\n        offer.isDeclined = false;\n        offer.transactionCharge = txCharge;\n        bool isofferCreated = dataContract.addOffer(offer);\n        require(isofferCreated, \"Offer canot be created.\");\n        emit SwapOfferCreated(\n            listingId_,\n            _msgSender(),\n            address(nftContract),\n            tokenId_\n        );\n    }\n\n    function declineOffer(uint256 offerId_, uint256 listingId_) external {\n        ISwapData.SwapOffer memory offer = dataContract.readOfferById(offerId_);\n        ISwapData.SwapListing memory listing = dataContract.readListingById(\n            listingId_\n        );\n        require(\n            offer.listingTokenId == listing.tokenId,\n            \"Inecorrect attempt to decline offer.\"\n        );\n        require(\n            offer.listingTokenOwner == _msgSender(),\n            \"You are not authorized to decline offers for this listing.\"\n        );\n        offer.isDeclined = true;\n        dataContract.updateOffer(offer);\n        emit SwapOfferDeclied(_msgSender(), offerId_, listingId_);\n    }\n\n    function acceptOffer(uint256 offerId_, uint256 listingId_) external {\n        ISwapData.SwapOffer memory offer = dataContract.readOfferById(offerId_);\n        ISwapData.SwapListing memory listing = dataContract.readListingById(\n            listingId_\n        );\n        IERC721Upgradeable offerContract = IERC721Upgradeable(\n            offer.offerTokenAddress\n        );\n        IERC721Upgradeable listingContract = IERC721Upgradeable(\n            offer.listingTokenAddress\n        );\n        require(offer.listingTokenId == listing.tokenId, \"Incorrect listing\");\n        IERC721Upgradeable listingNftContract = IERC721Upgradeable(\n            listing.tokenAddress\n        );\n        require(\n            listingNftContract.ownerOf(listing.tokenId) == _msgSender(),\n            \"You are not the owner of this listing\"\n        );\n        require(\n            offer.listingTokenId == listing.tokenId,\n            \"Inecorrect attempt to accept offer.\"\n        );\n        require(!listing.isCompleted && !offer.isCompleted, \"Invalid request.\");\n        require(!listing.isCancelled && !offer.isCancelled, \"Invalid Request.\");\n        require(!offer.isDeclined, \"Invalid Request\");\n        address offerTokenOperator = offerContract.getApproved(\n            offer.offerTokenId\n        );\n        address listingTokenOperator = listingContract.getApproved(\n            offer.listingTokenId\n        );\n        require(\n            offerTokenOperator == address(this) &&\n                listingTokenOperator == address(this),\n            \"not approved\"\n        );\n\n        offerContract.transferFrom(\n            offer.offerTokenOwner,\n            offer.listingTokenOwner,\n            offer.offerTokenId\n        );\n        listingContract.transferFrom(\n            offer.listingTokenOwner,\n            offer.offerTokenOwner,\n            offer.listingTokenId\n        );\n        _safeTransferNative(treasury, listing.transactionCharge);\n        listing.isCompleted = true;\n        offer.isCompleted = true;\n        dataContract.updateListing(listing);\n        dataContract.updateOffer(offer);\n        ISwapData.Trade memory trade;\n        trade.listingId = listing.listingId;\n        trade.offerId = offer.offerId;\n        dataContract.addTrade(trade);\n        emit SwapOfferAccepted(_msgSender(), offerId_, listingId_);\n    }\n\n    function readAllListings()\n        external\n        view\n        returns (ISwapData.SwapListing[] memory)\n    {\n        return dataContract.readAllListings();\n    }\n\n    function readListingsByIndex(\n        uint256 start,\n        uint256 end\n    ) external view returns (ISwapData.SwapListing[] memory) {\n        return dataContract.readListingsByIndex(start, end);\n    }\n\n    function readListingById(\n        uint256 id\n    ) external view returns (ISwapData.SwapListing memory) {\n        return dataContract.readListingById(id);\n    }\n\n    function removeListingById(uint256 id) external {\n        ISwapData.SwapListing memory listing = dataContract.readListingById(id);\n        require(\n            _msgSender() == listing.tokenOwner,\n            \"Only listing creators can remove listings.\"\n        );\n        _safeTransferNative(_msgSender(), listing.transactionCharge);\n        dataContract.removeListingById(id);\n        emit SwapListingWithdraw(_msgSender(), id);\n    }\n\n    function readAllOffers()\n        external\n        view\n        returns (ISwapData.SwapOffer[] memory)\n    {\n        return dataContract.readAllOffers();\n    }\n\n    function readOfferById(\n        uint256 id\n    ) external view returns (ISwapData.SwapOffer memory) {\n        return dataContract.readOfferById(id);\n    }\n\n    function removeOfferById(uint256 id) external {\n        ISwapData.SwapOffer memory offer = dataContract.readOfferById(id);\n        require(\n            _msgSender() == offer.offerTokenOwner,\n            \"Only offer creators can remove offers.\"\n        );\n        dataContract.removeOfferById(id);\n        emit SwapOfferWithdraw(_msgSender(), id);\n    }\n\n    function readOffersByIndex(\n        uint256 start,\n        uint256 end\n    ) external view returns (ISwapData.SwapOffer[] memory) {\n        return dataContract.readOffersByIndex(start, end);\n    }\n\n    function readAllTrades() external view returns (ISwapData.Trade[] memory) {\n        return dataContract.readAllTrades();\n    }\n\n    function readTradesByIndex(\n        uint256 start,\n        uint256 end\n    ) external view returns (ISwapData.Trade[] memory) {\n        return dataContract.readTradesByIndex(start, end);\n    }\n\n    function readTradeById(\n        uint256 id\n    ) external view returns (ISwapData.Trade memory) {\n        return dataContract.readTradeById(id);\n    }\n\n    function setTxCharge(\n        uint256 newTxCharge\n    ) external onlyRole(DEFAULT_ADMIN_ROLE) {\n        txCharge = newTxCharge;\n        emit TxChargeChanged(newTxCharge);\n    }\n\n    function setTreasuryWallet(\n        address newTreasury\n    ) external onlyRole(DEFAULT_ADMIN_ROLE) {\n        treasury = newTreasury;\n        emit TreasuryWalletChanged(newTreasury);\n    }\n\n    function getTxCharge() external view returns (uint256) {\n        return txCharge;\n    }\n\n    function _safeTransferNative(address to, uint256 value) internal {\n        (bool success, ) = to.call{value: value}(\"\");\n        require(success, \"TransferHelper: TRANSFER_FAILED\");\n    }\n}\n",
  "sourcePath": "/Users/shivam/github/contracts-upgradable/contracts/SwapNFTUpgradeable.sol",
  "compiler": {
    "name": "solc",
    "version": "0.8.17+commit.8df45f5f.Emscripten.clang"
  },
  "schemaVersion": "3.4.7",
  "updatedAt": "2023-12-06T09:22:21.151Z",
  "devdoc": {
    "kind": "dev",
    "methods": {
      "getRoleAdmin(bytes32)": {
        "details": "Returns the admin role that controls `role`. See {grantRole} and {revokeRole}. To change a role's admin, use {_setRoleAdmin}."
      },
      "grantRole(bytes32,address)": {
        "details": "Grants `role` to `account`. If `account` had not been already granted `role`, emits a {RoleGranted} event. Requirements: - the caller must have ``role``'s admin role. May emit a {RoleGranted} event."
      },
      "hasRole(bytes32,address)": {
        "details": "Returns `true` if `account` has been granted `role`."
      },
      "renounceRole(bytes32,address)": {
        "details": "Revokes `role` from the calling account. Roles are often managed via {grantRole} and {revokeRole}: this function's purpose is to provide a mechanism for accounts to lose their privileges if they are compromised (such as when a trusted device is misplaced). If the calling account had been revoked `role`, emits a {RoleRevoked} event. Requirements: - the caller must be `account`. May emit a {RoleRevoked} event."
      },
      "revokeRole(bytes32,address)": {
        "details": "Revokes `role` from `account`. If `account` had been granted `role`, emits a {RoleRevoked} event. Requirements: - the caller must have ``role``'s admin role. May emit a {RoleRevoked} event."
      },
      "supportsInterface(bytes4)": {
        "details": "See {IERC165-supportsInterface}."
      }
    },
    "version": 1
  },
  "userdoc": {
    "kind": "user",
    "methods": {},
    "version": 1
  }
}